:0C0FFB004100660041006500410000005C
:100B2500120FB212000E7D207C4EE4FF120807E47E
:100B3500FF12103B900065E070FA900000E0D3943E
:100B450000402CE4900067F0900000E0FF90006703
:100B5500E0FEC39F501974012EF582E43400F5833D
:100B6500E0FD7F01120FD2900067E004F080D9E428
:0C0B7500900000F09000657403F080B860
:100E8B00900000E0C394644002E4F0900000E0FFA7
:100E9B0004F074012FF582E43400F583E599F090AA
:060EAB0000657403F02253
:0D0FEE00900065E0D394004003E014F02271
:03000000020952A0
:10095200787FE4F6D8FD9000007F007E20E4F0A3CB
:0A096200DFFCDEFA7581200209A710
:100F3700EF4E60167DAC7C0DED1D70011C144C70DE
:0A0F4700F7EF1F70011E144E70EA50
:010F5100227D
:09102000EF1F70011E144E70F761
:0110290022A4
:100F1800E4FCFD7B047AFF7906F8120291900092B6
:0F0F28001203BC900092E0C313FEA3E013FF225C
:100ED400E50965996008859909E4F50880053000FD
:100EE400020508E508C394E94007C2AF75C76080EE
:020EF400FB22DF
:1005E200EF14601614602C14604D14606C147003C8
:1005F2000206762405600302069990FE02E0547E0C
:100602004480F0E030E0F390FE00E054FCF090FE15
:1006120003807A90FE04E0547E4480F0E030E0F300
:1006220090FE00E054FC4403F090FE02E4F090FEE1
:1006320008F090FE03F02290FE08E0547E4480F021
:10064200E030E0F390FE00E054FC4402F090FE043F
:10065200E4F090FE02F0A3F02290FE03E0543E4448
:1006620080F0E030E0F390FE00E054FC4401F090B2
:10067200FE02801990FE03E0543E44C0F0E030E0F8
:10068200F390FE00E054FC4401F090FE02E4F0908E
:08069200FE08F090FE04F022C6
:0C100800EF90FE01700304F022EFF022D4
:100FB20043BA80D200E4F509F508120DD4D2AF226B
:0B07510090007AEBF0A3EAF0A3E9F0BF
:10075C00E4FFFE900080F0A3F0A3F0A3F090007AE9
:10076C00E0FBA3E0FAA3E0F91201EB70030208022C
:10077C0090007DE0FBA3E0FAA3E0F98F828E831258
:10078C000204FD90007AE0FBA3E0FAA3E0F9120169
:10079C00EBB505070FBF00010E801E1201EBFD909B
:1007AC00007DE0FBA3E0FAA3E0F91201EBB505062E
:1007BC007E007F018003E4FEFF900083E004F07074
:1007CC0006900082E004F090007BE475F0011202C8
:1007DC006590007DE0FBA3E0FAA3E0F98F828E83A5
:1007EC001202046003020769C3900083E09FFF902C
:0A07FC000082E09EFE227EFF7FFFD8
:0108060022CF
:10069A00E4900096F0900098F0900097F090009700
:1006AA00E0FFC3940A400302074B7E00ED2FF58258
:1006BA00EE3CF583120204FFC3648094B0404BD32E
:1006CA00EF648094B75043900098E004F0E0B401DE
:1006DA0017900097E02DF582EE3CF5831202042470
:1006EA00D0C454F0900096F0900098E0B4021B90A9
:1006FA000097E07E002DF582EE3CF5831202042479
:10070A00D0FF900096E04FFFF022900097E07E0025
:10071A002DF582EE3CF583120204FFC3648094B87F
:10072A00400ED3EF648094B95006900098E004F02C
:10073A00EF642C600CEF6009900097E004F0020669
:06074A00A7900096E0FFFD
:010750002286
:0805260090008DECF0A3EDF054
:10052E00E4A3F0A3F0A3F0900091E0FFC394144075
:10053E00030205D990008EE02FFF90008DE034006D
:10054E008F82F583120204FFC3648094B0404ED3B1
:10055E00EF648094B9504690008FE0FEA3E0FF7CDC
:10056E00007D0A12025390008FEEF0A3EFF0A3E08D
:10057E00FF90008EE02FFF90008DE034008F82F50B
:10058E0083120204FF3395E0FEEF24D0FFEE34FF1A
:10059E00FE900090E02FF090008FE03EF0900091E2
:1005AE00E0FF90008EE02FFF90008DE034008F82F0
:1005BE00F583120204FF642C6011EF642E600CEFC1
:1005CE006009900091E004F002053590008FE0FE86
:0305DE00A3E0FF98
:0105E10022F7
:1003F900900068EBF0A3EAF0A3E9F0A3ECF0A3ED19
:01040900F002
:10040A00E4900074F0A3F0A3F0A3F0A3F0A3F0909B
:10041A000072F0A3F090006BE0FEA3E0FF90007280
:10042A00E0FCA3E0FDC39FEC9E40030204C99000D8
:10043A006DE0FBA3E0FAA3E0F9900074E0FEA3E00C
:10044A00F5828E83120204FF900068E0FBA3E0FAB3
:10045A00A3E0F98D828C83120204B50733900075EC
:10046A00E004F07006900074E004F0900070E0FE82
:10047A00A3E0FF900074E0B50631A3E0B5072C9025
:10048A000072E0FFA3E0900078CFF0A3EFF0802F96
:10049A00E4900074F0A3F0900073E02401FE900051
:1004AA0072E03400900076F0A3CEF0900073E0047E
:1004BA00F0600302041F900072E004F002041F902F
:1004CA000078E0FEA3E0FF900076E0FCA3E0FDD315
:1004DA009FEC9E5044900072ECF0A3EDF0900078EF
:1004EA00E0FEA3E0FF900072E0FCA3E0FDC39FECF6
:1004FA009E5023900068E0FBA3E0FAA3E0F98D8206
:10050A008C83E4120231900073E004F070CF900003
:0B051A0072E004F080C77F01227F0028
:0105250022B3
:081033000102040810204080B6
:100B8100EF64886052EF54F0F50AEF540FFE9010B5
:100B91003393F50BEED39407503DED6017E50A242E
:100BA100B060092420703090FE13800390FE15E0A0
:100BB100450BF022E50A24B060112420701990FE43
:100BC10013E0FFE50BF4FEEF5EF02290FE15E0FF6F
:070BD100E50BF4FEEF5EF0FE
:010BD80022FA
:100DA200EB6015EF24B060092420702590FE1380BB
:100DB2000390FE15E04DF022EF24B060092420706C
:100DC2001090FE13800390FE15E0FFEDF4FEEF5E3F
:020DD200F0220D
:1008AD00EF64887003020951EF54F0F50AEF540F0D
:1008BD00FE90103393F50BEED394074003020951CC
:1008CD00E50A24B060092420707A750A0380037547
:1008DD000A05EDD39403506CE50A64037030ED7096
:1008ED0007E50BF452B152B2EDB40109E50B42B17B
:1008FD00E50BF452B2EDB40208E50B42B1E50B4243
:10090D00B2EDB40309E50BF452B1E50B42B2E50AC1
:10091D0064057030ED7007E50BF452C952CAEDB4A1
:10092D000109E50B42C9E50BF452CAEDB40208E525
:10093D000B42C9E50B42CAEDB40309E50BF452C9EC
:04094D00E50B42CAAA
:010951002283
:100AC200EBD39403505CEF64037029EB7006EDF4F2
:100AD20052B152B2EBB40107ED42B1EDF452B2EBB6
:100AE200B40206ED42B1ED42B2EBB40307EDF452AB
:100AF200B1ED42B2EF64057029EB7006EDF452C914
:100B020052CAEBB40107ED42C9EDF452CAEBB4028A
:100B120006ED42C9ED42CAEBB40307EDF452C9ED4A
:030B220042CA22A2
:1009EC00EF64886065EF54F0F50AEF540FFE901039
:1009FC003393F50BEED394075050E50A24B06009FD
:100A0C0024207046750A038003750A05EDB401179E
:100A1C00E50A24FB60092402703090FE23800390C9
:100A2C00FE25E0450BF022E50A24FB601124027040
:100A3C001990FE23E0FFE50BF4FEEF5EF02290FE32
:0A0A4C0025E0FFE50BF4FEEF5EF07D
:010A5600227D
:100A5700EF64886065EF54F0F50AEF540FFE9010CD
:100A67003393F50BEED394075050E50A24B0600991
:100A770024207046750A038003750A05EDB4011733
:100A8700E50A24FB60092402703090FE2B80039056
:100A9700FE2DE0450BF022E50A24FB6011240270CD
:100AA7001990FE2BE0FFE50BF4FEEF5EF02290FEBF
:0A0AB7002DE0FFE50BF4FEEF5EF00A
:010AC1002212
:100F7F00EF24FB6007240270078DB022AF058FC8E6
:010F8F00223F
:100F6D00EF24FB600724027006AFB022AFC8227FCA
:020F7D00FF2251
:100C7100EF64886041EF54F0F50AEF540FFE9010D5
:100C81003393F50BEED39407502CED6014E50A2451
:100C9100B060092420701FE50B42B022E50B42C869
:100CA10022E50A24B0600A2420700BE50BF452B04F
:060CB10022E50BF452C81D
:010CB700221A
:100CB800EFB488037F0022EF54F0F50AEF540FFEDB
:100CC80090103393F50BEED3940740037F0122E590
:100CD8000A24B060092420700885B00C800385C8F8
:0C0CE8000CE50C550B60037F01227F001F
:010CF40022DD
:100E3400EF64886028EF54F0F50AEF540FFE901029
:100E44003393F50BEED394075013E50A24B06009ED
:0D0E540024207009E50B62B022E50B62C896
:010E6100226E
:100F9000EF24FB600824027007ED62B022ED62C806
:010FA000222E
:100E6200A907EB6011E924FB60082402701AED4225
:100E7200B022ED42C822E924FB600924027009ED88
:090E8200F452B022EDF452C82232
:100EF600EF24FB600C24FD600C2405700BAEB08063
:100F060007AEC880037F0122EE5D60037F01227F6A
:010F160000DA
:010F170022B7
:0610430030313233545538
:100DD40075985053873F538EDEE4FD7F01120BD983
:100DE4009000851203C80001C2007F01120E044363
:100DF4008E4053890FC2ABC28FD28EC201D2AC22B5
:100BD900900084EDF0EF147044900084E0FF54C05D
:100BE900FEE5A2543F4EF5A2EFC41313540325E0CA
:100BF9002443F582E43410F583E493FFE4FD1208FD
:100C0900AD900084E0C41313540325E02444F58215
:0E0C1900E43410F583E493FF7D031208AD224E
:050E0400900084EFF0F6
:100E0900A3E0F8A3E0F9A3E0FAA3E0FB7FB07E83B7
:100E19007D857C0012031CC3E49FFFE49EFE9000C5
:0A0E290084E01470058F8BEEF58D48
:010E3300229C
:0E0FD200EF147009AF058F99D2012001FD22A6
:100F5200EF147016EB6006D29BD29B8004C29BC238
:0B0F62009BAF058F99D2012001FD22FA
:100D6B00900099EBF0A3EAF0A3E9F0AE079000999D
:100D7B00E0FBA3E0FAA3E0F91201EB6019AF0690D8
:100D8B000099A3E475F00112027BA9F0FA1201EBB2
:070D9B00FD120FD280D722E8
:0E0FE000E4FD7F321208ADD2B2C288D2A82240
:06104900EF7002D2A822A4
:06104F00EF7002C2A822AE
:0C101400EF7008ED6003D28822C2882231
:08103B00EF7004C28DD28C227B
:06105500EF7002C28C22C4
:100EB10090009CEFF0ED600AE07017438F017D0315
:100EC100800B90009CE0700A538FFEE4FD7F351289
:030ED10008AD2247
:10000E00E58E547F4480F58E5389F0758A24E4F58D
:04001E008CD2A922B5
:0B080700900084EFF0A3ECF0A3EDF0F4
:100812004C70030208AC7F507E079000897457F039
:10082200A374C5F0900085E0FCA3E0FDD39FEC9E8D
:100832005013A3E4F0A304F0E4120131E4FBFA79CB
:100842000C78428029900089E0FEA3E0FF900085A9
:10085200E0FCA3E0FDD39FEC9E5026A3E4F0A3743A
:100862000CF0E41201317BAB7AAA793A784012009B
:100872002612016AC3E49FFFE49E90008BF0A3EF6F
:10088200F0900084E07023900087E07004A3E0649D
:10089200017005438E808003538E7F90008BE0FEB3
:0A08A200A3E0F58AEEF58C5389FB04
:0108AC002229
:09102A00EF70058D8AECF58C22B3
:100FA100E4FDFCEF7006AF8CEFAD8AFCAE04AF053B
:010FB100221D
:100FC20053B7FEC2B853B7FDC2B953B7EFC2BC2282
:03000300020CF5F7
:100CF500C0E0C0F0C083C082C0D075D000C000C0C5
:100D050001C002C003C004C005C006C00712000030
:100D1500D007D006D005D004D003D002D001D00032
:0B0D2500D0D0D082D083D0F0D0E032DC
:03000B00020D30B3
:100D3000C0E0C0F0C083C082C0D075D000C000C089
:100D400001C002C003C004C005C006C007120FEEF8
:100D5000D007D006D005D004D003D002D001D000F7
:0B0D6000D0D0D082D083D0F0D0E032A1
:03002300020C27A5
:100C2700C0E0C0F0C083C082C0D075D000C000C093
:100C370001C002C003C004C005C006C00730980841
:100C4700C298120E8B120ED4309904C299C201D0E9
:100C570007D006D005D004D003D002D001D000D0F1
:0A0C6700D0D082D083D0F0D0E0326C
:10002600EC4D6011E8497017ED33EC3304600DE4D4
:10003600FCFFFEFD22E933E8330470F80201D61214
:1000460001A158046009E4CC248150062850090215
:1000560001E02840030201DDC0E0EB4A7044B980AC
:1000660006D0E0FB0201CCEF4E701CBD8008EBFF12
:10007600EAFEE9FD80EBE98DF0A4FEE5F002010F52
:10008600E9CDF9EAFEEBFFEF89F0A4FCE5F0CE89B5
:10009600F0A42EFFE435F0CD89F0A42DFEE435F072
:1000A6008067EF4E7005BD80D780C3EF8BF0A4ACA0
:1000B600F0EE8BF0A42CFCE435F0F8EF8AF0A42CDB
:1000C600E5F038FCE433CB8DF0A42CFCE5F03BF8EE
:1000D600EE8AF0A42CFCE5F038F8E433CF89F0A4DE
:1000E6002CFCE5F038CF3400CE89F0A42FFFE5F0E4
:1000F6003EFEE433C98DF0A42EFEE5F039CD8AF03C
:10010600A42FFFE5F03EFEE43DFD33D0E0FB5007B3
:100116000BBB000F0201E0EC2CFCEF33FFEE33FECD
:06012600ED33FD0201B8FB
:10012C0075F020800E75F010800575F0087D007E4E
:10013C00007F003392D530D5031203AEEC33401060
:10014C00EF33FFEE33FEED33FDEC33FCD5F0ED2257
:0E015C00E5F0247EA2D513CC92E7CDCEFF2293
:10016A00EDD2E7CD33EC3392D524814006E4FFFE8D
:10017A00FDFC22FCE4CFCECDCC24E0501174FF80EC
:10018A00EDC3CC13CCCD13CDCE13CECF13CF047089
:07019A00F030D5DE0203AED8
:1001A100E9D2E7C933E833F892D5EDD2E7CD33ECA4
:0701B10033FC5002B2D5221D
:1001B800EC30E7100FBF000C0EBE00080DBD0004A8
:1001C8000BEB6014A2D5EB13FCED92E7FD2274FF54
:1001D800FCFDFEFF22E480F8A2D574FF13FC7D80AD
:0301E800E480EFC1
:10096C00020B25E493A3F8E493A34003F68001F271
:10097C0008DFF48029E493A3F85407240CC8C3338C
:10098C00C4540F4420C8834004F456800146F6DF5B
:10099C00E4800B0102040810204080900FFBE47EE1
:1009AC00019360BCA3FF543F30E509541FFEE49350
:1009BC00A360010ECF54C025E060A840B8E493A317
:1009CC00FAE493A3F8E493A3C8C582C8CAC583CA42
:1009DC00F0A3C8C582C8CAC583CADFE9DEE780BEFA
:0110070000E8
:1001EB00BB010689828A83E0225002E722BBFE0212
:0901FB00E32289828A83E4932245
:10020400BB010CE58229F582E5833AF583E02250AF
:1002140006E92582F8E622BBFE06E92582F8E222F9
:0D022400E58229F582E5833AF583E4932213
:10023100F8BB010DE58229F582E5833AF583E8F003
:10024100225006E92582C8F622BBFE05E92582C8AF
:02025100F22297
:10025300EF8DF0A4A8F0CF8CF0A428CE8DF0A42EBF
:02026300FE2279
:10026500C5F0F8A3E028F0C5F0F8E5821582700224
:060275001583E038F022C1
:10027B00A3F8E0C5F025F0F0E58215827002158336
:06028B00E0C838F0E82293
:10029100E88FF0A4CC8BF0A42CFCE98EF0A42CFC0C
:1002A1008AF0EDA42CFCEA8EF0A4CDA8F08BF0A48A
:1002B1002DCC3825F0FDE98FF0A42CCD35F0FCEBE9
:1002C1008EF0A4FEA9F0EB8FF0A4CFC5F02ECD39AE
:0F02D100FEE43CFCEAA42DCE35F0FDE43CFC221B
:1002E00075F008758200EF2FFFEE33FECD33CDCCD5
:1002F00033CCC58233C5829BED9AEC99E582984058
:100300000CF582EE9BFEED9AFDEC99FC0FD5F0D634
:10031000E4CEFBE4CDFAE4CCF9A88222B800C1B95E
:100320000059BA002DEC8BF084CFCECDFCE5F0CB9C
:10033000F97818EF2FFFEE33FEED33FDEC33FCEBD5
:1003400033FB10D703994004EB99FB0FD8E5E4F990
:10035000FA227818EF2FFFEE33FEED33FDEC33FC7D
:10036000C933C910D7059BE99A4007EC9BFCE99A71
:10037000F90FD8E0E4C9FAE4CCFB2275F010EF2FB6
:10038000FFEE33FEED33FDCC33CCC833C810D707B6
:100390009BEC9AE899400AED9BFDEC9AFCE899F8F1
:0E03A0000FD5F0DAE4CDFBE4CCFAE4C8F92284
:0E03AE00C3E49FFFE49EFEE49DFDE49CFC2260
:0C03BC00ECF0A3EDF0A3EEF0A3EFF022B4
:1003C800A8828583F0D083D0821203DF1203DF1264
:1003D80003DF1203DFE473E493A3C583C5F0C58389
:1003E800C8C582C8F0A3C583C5F0C583C8C582C87F
:0103F80022E2
:00000001FF
