:0F101D0048656C6C6F20776F726C64200D0A0051
:100FC20012100D7FE87E03120F727BFF7A10791DDB
:070FD2007F01120DE780EC26
:03000000020FA844
:100FA800787FE4F6D8FD9000007F007E20E4F0A36F
:0A0FB800DFFCDEFA758121020FC292
:100F7200EF4E60167DAC7C0DED1D70011C144C70A3
:0A0F8200F7EF1F70011E144E70EA15
:010F8C002242
:09104600EF1F70011E144E70F73B
:01104F00227E
:10000300E4FCFD7B047AFF7906F81204319000C307
:0F00130012054E9000C3E0C313FEA3E013FF22BB
:100F2E00E50E6599600885990EE4F50D800530098A
:100F3E0002050DE50DC394E94007C2AF75C7608089
:020F4E00FB2284
:1007CC00EF14601614602C14604D14606C147003DC
:1007DC000208602405600302088390FE02E0547E48
:1007EC004480F0E030E0F390FE00E054FCF090FE2A
:1007FC0003807A90FE04E0547E4480F0E030E0F315
:10080C0090FE00E054FC4403F090FE02E4F090FEF5
:10081C0008F090FE03F02290FE08E0547E4480F035
:10082C00E030E0F390FE00E054FC4402F090FE0453
:10083C00E4F090FE02F0A3F02290FE03E0543E445C
:10084C0080F0E030E0F390FE00E054FC4401F090C6
:10085C00FE02801990FE03E0543E44C0F0E030E00C
:10086C00F390FE00E054FC4401F090FE02E4F090A2
:08087C00FE08F090FE04F022DA
:0C103A00EF90FE01700304F022EFF022A2
:10100D0043BA80D209E4F50EF50D120E50D2AF227F
:0B093B009000A9EBF0A3EAF0A3E9F0A4
:10094600E4FFFE9000AFF0A3F0A3F0A3F09000A99F
:10095600E0FBA3E0FAA3E0F912038B70030209ECB3
:100966009000ACE0FBA3E0FAA3E0F98F828E83123D
:1009760003A4FD9000A9E0FBA3E0FAA3E0F91203AB
:100986008BB505070FBF00010E801E12038BFD906D
:1009960000ACE0FBA3E0FAA3E0F912038BB5050671
:1009A6007E007F018003E4FEFF9000B2E004F07059
:1009B600069000B1E004F09000AAE475F00112047C
:1009C600059000ACE0FBA3E0FAA3E0F98F828E83EA
:1009D6001203A46003020953C39000B2E09FFF9084
:0A09E60000B1E09EFE227EFF7FFFBD
:0109F00022E4
:10088400E49000C7F09000C9F09000C8F09000C850
:10089400E0FFC3940A40030209357E00ED2FF58280
:1008A400EE3CF5831203A4FFC3648094B0404BD3A1
:1008B400EF648094B750439000C9E004F0E0B401C1
:1008C400179000C8E02DF582EE3CF5831203A424B2
:1008D400D0C454F09000C7F09000C9E0B4021B905B
:1008E40000C8E07E002DF582EE3CF5831203A424BB
:1008F400D0FF9000C7E04FFFF0229000C8E07E00D8
:100904002DF582EE3CF5831203A4FFC3648094B8F2
:10091400400ED3EF648094B950069000C9E004F00F
:10092400EF642C600CEF60099000C8E004F002084A
:06093400919000C7E0FFF6
:01093A00229A
:080710009000B9ECF0A3EDF03C
:10071800E4A3F0A3F0A3F09000BDE0FFC39414405D
:10072800030207C39000BAE02FFF9000B9E034003D
:100738008F82F5831203A4FFC3648094B0404ED324
:10074800EF648094B950469000BBE0FEA3E0FF7CC4
:10075800007D0A1203F39000BBEEF0A3EFF0A3E0D4
:10076800FF9000BAE02FFF9000B9E034008F82F5C7
:10077800831203A4FF3395E0FEEF24D0FFEE34FF8D
:10078800FE9000BCE02FF09000BBE03EF09000BD72
:10079800E0FF9000BAE02FFF9000B9E034008F82AC
:1007A800F5831203A4FF642C6011EF642E600CEF34
:1007B80060099000BDE004F002071F9000BBE0FE56
:0307C800A3E0FFAC
:0107CB00220B
:1005E300900097EBF0A3EAF0A3E9F0A3ECF0A3EDFE
:0105F300F017
:1005F400E49000A3F0A3F0A3F0A3F0A3F0A3F09081
:1006040000A1F0A3F090009AE0FEA3E0FF9000A107
:10061400E0FCA3E0FDC39FEC9E40030206B3900000
:100624009CE0FBA3E0FAA3E0F99000A3E0FEA3E0C2
:10063400F5828E831203A4FF900097E0FBA3E0FAF7
:10064400A3E0F98D828C831203A4B507339000A430
:10065400E004F070069000A3E004F090009FE0FE38
:10066400A3E0FF9000A3E0B50631A3E0B5072C900A
:1006740000A1E0FFA3E09000A7CFF0A3EFF0802F4C
:10068400E49000A3F0A3F09000A2E02401FE900007
:10069400A1E034009000A5F0A3CEF09000A2E00405
:1006A400F060030206099000A1E004F0020609903C
:1006B40000A7E0FEA3E0FF9000A5E0FCA3E0FDD3CB
:1006C4009FEC9E50449000A1ECF0A3EDF09000A7A5
:1006D400E0FEA3E0FF9000A1E0FCA3E0FDC39FECDB
:1006E4009E5023900097E0FBA3E0FAA3E0F98D82EB
:1006F4008C83E41203D19000A2E004F070CF900048
:0B070400A1E004F080C77F01227F000D
:01070F0022C7
:08105000010204081020408099
:100C2C00EF64886052EF54F0F50FEF540FFE901004
:100C3C005093F510EED39407503DED6017E50F245B
:100C4C00B060092420703090FE13800390FE15E0F4
:100C5C004510F022E50F24B060112420701990FE8D
:100C6C0013E0FFE510F4FEEF5EF02290FE15E0FFBE
:070C7C00E510F4FEEF5EF04D
:010C8300224E
:100E1E00EB6015EF24B060092420702590FE13803E
:100E2E000390FE15E04DF022EF24B06009242070EF
:100E3E001090FE13800390FE15E0FFEDF4FEEF5EC2
:020E4E00F02290
:1009F100EF64887003020A95EF54F0F50FEF540F7E
:100A0100FE90105093F510EED394074003020A951F
:100A1100E50F24B060092420707A750F03800375F7
:100A21000F05EDD39403506CE50F64037030ED7046
:100A310007E510F452B152B2EDB40109E51042B12B
:100A4100E510F452B2EDB40208E51042B1E51042EE
:100A5100B2EDB40309E510F452B1E51042B2E50F6D
:100A610064057030ED7007E510F452C952CAEDB457
:100A71000109E51042C9E510F452CAEDB40208E5D6
:100A81001042C9E51042CAEDB40309E510F452C998
:040A9100E51042CA60
:010A9500223E
:100B6C00EBD39403505CEF64037029EB7006EDF447
:100B7C0052B152B2EBB40107ED42B1EDF452B2EB0B
:100B8C00B40206ED42B1ED42B2EBB40307EDF45200
:100B9C00B1ED42B2EF64057029EB7006EDF452C969
:100BAC0052CAEBB40107ED42C9EDF452CAEBB402E0
:100BBC0006ED42C9ED42CAEBB40307EDF452C9EDA0
:030BCC0042CA22F8
:100A9600EF64886065EF54F0F50FEF540FFE901089
:100AA6005093F510EED394075050E50F24B060092B
:100AB60024207046750F038003750F05EDB40117EA
:100AC600E50F24FB60092402703090FE238003901A
:100AD600FE25E04510F022E50F24FB60112402708C
:100AE6001990FE23E0FFE510F4FEEF5EF02290FE83
:0A0AF60025E0FFE510F4FEEF5EF0CE
:010B000022D2
:100B0100EF64886065EF54F0F50FEF540FFE90101D
:100B11005093F510EED394075050E50F24B06009BF
:100B210024207046750F038003750F05EDB401177E
:100B3100E50F24FB60092402703090FE2B800390A6
:100B4100FE2DE04510F022E50F24FB601124027018
:100B51001990FE2BE0FFE510F4FEEF5EF02290FE0F
:0A0B61002DE0FFE510F4FEEF5EF05A
:010B6B002267
:100FEB00EF24FB6007240270078DB022AF058FC87A
:010FFB0022D3
:100FD900EF24FB600724027006AFB022AFC8227F5E
:020FE900FF22E5
:100D1C00EF64886041EF54F0F50FEF540FFE901024
:100D2C005093F510EED39407502CED6014E50F247E
:100D3C00B060092420701FE51042B022E51042C8B3
:100D4C0022E50F24B0600A2420700BE510F452B099
:060D5C0022E510F452C86C
:010D6200226E
:100DAA00EFB488037F0022EF54F0F50FEF540FFEE3
:100DBA0090105093F510EED3940740037F0122E57B
:100DCA000F24B060092420700885B011800385C8FB
:0C0DDA0011E511551060037F01227F001D
:010DE60022EA
:100EB000EF64886028EF54F0F50FEF540FFE9010A8
:100EC0005093F510EED394075013E50F24B060094A
:0D0ED00024207009E51062B022E51062C810
:010EDD0022F2
:100FFC00EF24FB600824027007ED62B022ED62C89A
:01100C0022C1
:100EDE00A907EB6011E924FB60082402701AED42A9
:100EEE00B022ED42C822E924FB600924027009ED0C
:090EFE00F452B022EDF452C822B6
:100F5000EF24FB600C24FD600C2405700BAEB08008
:100F600007AEC880037F0122EE5D60037F01227F10
:010F70000080
:010F7100225D
:0610580030313233545523
:100E500075985053873F538EDEE4FD7F01120C845A
:100E60009000BF12055A0001C2007F01120E80439C
:100E70008E4053890FC2ABC28FD28EC20AD2AC222F
:100C84009000BEEDF0EF1470449000BEE0FF54C03D
:100C9400FEE5A2543F4EF5A2EFC41313540325E01E
:100CA4002458F582E43410F583E493FFE4FD12093B
:100CB400F19000BEE0C41313540325E02459F582D7
:0E0CC400E43410F583E493FF7D031209F1225E
:050E80009000BEEFF040
:100E8500A3E0F8A3E0F9A3E0FAA3E0FB7FB07E833B
:100E95007D857C001204BCC3E49FFFE49EFE9000A8
:0A0EA500BEE01470058F8BEEF58D92
:010EAF002220
:0E102C00EF147009AF058F99D20A200AFD2239
:100F8D00EF147016EB6006D29BD29B8004C29BC2FD
:0B0F9D009BAF058F99D20A200AFD22AD
:100DE7009000BEEBF0A3EAF0A3E9F0AE079000BED7
:100DF700E0FBA3E0FAA3E0F912038B6019AF0690BA
:100E070000BEA3E475F00112041BA9F0FA12038BCC
:070E1700FD12102C80D72210
:0E0BCF00900000EFF0A3EBF0A3EAF0A3E9F032
:100BDD0090006C7401F0A37400F0A37404F0900005
:100BED0001E0F9A3E0FAA3E09000B3C9F0A3EAF0A5
:100BFD00A3E9F090006CE0F9A3E0FAA3E09000B651
:100C0D00C9F0A3EAF0A3E9F07B017A00792C120C6C
:0F0C1D00D2900000E0FF7B017A00792C020DE7F6
:06105E0053B7EFC2BC22F3
:03002300020D6368
:100D6300C0E0C0F0C083C082C0D075D000C000C056
:100D730001C002C003C004C005C006C00730980507
:100D8300C298120F2E309904C299C20AD007D00616
:100D9300D005D004D003D002D001D000D0D0D0826F
:070DA300D083D0F0D0E03254
:10038B00BB010689828A83E0225002E722BBFE0270
:09039B00E32289828A83E49322A3
:1003A400BB010CE58229F582E5833AF583E022500E
:1003B40006E92582F8E622BBFE06E92582F8E22258
:0D03C400E58229F582E5833AF583E4932272
:1003D100F8BB010DE58229F582E5833AF583E8F062
:1003E100225006E92582C8F622BBFE05E92582C80E
:0203F100F222F6
:1003F300EF8DF0A4A8F0CF8CF0A428CE8DF0A42E1E
:02040300FE22D7
:10040500C5F0F8A3E028F0C5F0F8E5821582700282
:060415001583E038F0221F
:10041B00A3F8E0C5F025F0F0E58215827002158394
:06042B00E0C838F0E822F1
:10043100E88FF0A4CC8BF0A42CFCE98EF0A42CFC6A
:100441008AF0EDA42CFCEA8EF0A4CDA8F08BF0A4E8
:100451002DCC3825F0FDE98FF0A42CCD35F0FCEB47
:100461008EF0A4FEA9F0EB8FF0A4CFC5F02ECD390C
:0F047100FEE43CFCEAA42DCE35F0FDE43CFC2279
:1004800075F008758200EF2FFFEE33FECD33CDCC33
:1004900033CCC58233C5829BED9AEC99E5829840B6
:1004A0000CF582EE9BFEED9AFDEC99FC0FD5F0D693
:1004B000E4CEFBE4CDFAE4CCF9A88222B800C1B9BD
:1004C0000059BA002DEC8BF084CFCECDFCE5F0CBFB
:1004D000F97818EF2FFFEE33FEED33FDEC33FCEB34
:1004E00033FB10D703994004EB99FB0FD8E5E4F9EF
:1004F000FA227818EF2FFFEE33FEED33FDEC33FCDC
:10050000C933C910D7059BE99A4007EC9BFCE99ACF
:10051000F90FD8E0E4C9FAE4CCFB2275F010EF2F14
:10052000FFEE33FEED33FDCC33CCC833C810D70714
:100530009BEC9AE899400AED9BFDEC9AFCE899F84F
:0E0540000FD5F0DAE4CDFBE4CCFAE4C8F922E2
:0C054E00ECF0A3EDF0A3EEF0A3EFF02220
:10055A00A8828583F0D083D08212057112057112A8
:10056A000571120571E473E493A3C583C5F0C583CD
:10057A00C8C582C8F0A3C583C5F0C583C8C582C8EB
:01058A00224E
:100CD2009000B3E0FFA3E0FEA3E0CF900072F0A388
:100CE200EEF0A3EFF09000B6E0CBF0A3E0CAF0A3E1
:100CF200E0C9F07F22900075AD82AC8312038B8D28
:100D0200828C83F0A309E970010ADFEC9000B6E05F
:0A0D1200FBA3E0FAA3E0F902008B56
:10002600E5082472F582E43400F583E005082290A1
:10003600006F300703900072E475F00112059D020F
:10004600038B2000E97F2ED2008018EF540F2490F6
:10005600D43440D4FF30040BEF24BFB41A0050034D
:100066002461FFE50960021509050CE50C7002051F
:100076000B30070E90006FE475F00112059DEF023C
:10008600058B020F077403D2078003E4C207F50845
:1000960090006F1205B4E4F509F50BF50CE509605F
:1000A600077F2012006980F5750AFFC201C200C2EF
:1000B60002C203C205C206C208120035FF700D3027
:1000C60007057F0012007AAF0CAE0B22B4255FC283
:1000D600D5C204120035FF24D0B40A00501A75F0B8
:1000E6000A780930D50508B6FF0106C6A426F6200B
:1000F600D5047002D20380D924CFB41A00EF50047D
:10010600C2E5D20402027BD20180C6D20080C0D2F0
:100116000280BCD2D580BAD20580B47F2012006995
:100126002002077401B5090040F1120026FF1200F3
:10013600690200A3D208D2068095120026FB12009F
:1001460026FA120026F94A4B7006794C7A037BFF91
:1001560020022EE509602A7E008E82758300120336
:10016600A460060EEE650A70F0C2D5EBC0E0EAC0E8
:10017600E0E9C0E0EE1202C2D0E0F9D0E0FAD0E049
:10018600FB12038BFF60AAEBC0E0EAC0E0E9C0E027
:10019600120069D0E02401F9D0E03400FAD0E0FB87
:1001A600E50A0460DCD50AD980877BFF7A0279BE2E
:1001B600D202809C791080027908C206C2088008A3
:1001C600D2D5790A8004790AC2D5E50A047002F507
:1001D6000AE4FAFDFEFF120026FC7B08200113123A
:1001E6000026FD7B1030000A120026FE120026FFB4
:1001F6007B20EC3382D592D55013C3E43000069FA2
:10020600FFE49EFEE42001039DFDE49CFCE4CBF8A4
:10021600C201EC700CCFCECDCCE824F8F870F38098
:1002260017C3EF33FFEE33FEED33FDEC33FCEB3358
:10023600FB994002FB0FD8E9EB300105F8D0E0C48A
:1002460048B201C0E00AEC4D4E4F78207B0070C2E8
:10025600EAB50A0040BCC0E01202C4D0F0D0E020EB
:100266000104C4C0E0C4B201C0F0120052D0F0D5FF
:10027600F0EB0200A31205BD01405301BA5801116B
:100286004C010D4201BE4F01C64401C64901264339
:0802960001CC5501B04601B096
:10029E004501B047036C5001152D01192E013C2B61
:1002AE00011D23013A2003552A00D54800000134D0
:1002BE003F3F3F00790AA2D5200314300509B9103B
:1002CE00020404B9080104A2D5200602500104203C
:1002DE0002689202B509005034C0E07F2030031945
:1002EE007F30A20272067205500F12031BC202C2A9
:1002FE0006C205C2087F30800F300503E9C0E01248
:10030E000069300503D0E0F9D0E0B509CC3005170F
:10031E007F30B9100C1200697F583004077F788047
:10032E0003B908031200693002057F2D0200697FB0
:10033E00202008F87F2B2006F322920280CF286E11
:10034E00756C6C2900D2011200263001F8C20178BA
:10035E000930D50108F60200D52D50434958120038
:10036E00262403B405004001E49003679312005A5B
:0D037E00743A12005AD2037509040201BA44
:10058B00BB010689828A83F0225002F722BBFE014F
:02059B00F32249
:10059D00F8E0FBA3A3E0F925F0F0E58215827002E7
:0705AD001583E0FA38F0228B
:0905B400EBF0A3EAF0A3E9F02248
:1005BD00D083D082F8E4937012740193700DA3A3CD
:1005CD0093F8740193F5828883E4737402936860E1
:0605DD00EFA3A3A380DFE1
:100F0700EFB40A07740D120F12740A309811A899DA
:100F1700B8130CC2983098FDA899C298B811F6304A
:070F270099FDC299F5992222
:00000001FF
