:100ED9001210931211491211517D037F33120A0125
:100EE9007D037F54120A011210F8E4FDFF1211125A
:100EF900E4FF12113DE4FD7F54120D2C12114D80B7
:010F0900F4F3
:101080007D017F54120D2CC2B37FF47E0112000645
:03109000D2B322B6
:0300000002106685
:10106600787FE4F6D8FD9000007F007E20E4F0A3B0
:0A107600DFFCDEFA758121020ED9BD
:10000600EF4E60167DAC7C0DED1D70011C144C701E
:0A001600F7EF1F70011E144E70EA90
:0100200022BD
:09111E00EF1F70011E144E70F762
:0111270022A5
:10102C00E4FCFD7B047AFF7906F81204419000C3BE
:0F103C0012055E9000C3E0C313FEA3E013FF2272
:100FE800E50E6599600885990EE4F50D80053009D0
:100FF80002050DE50DC394E94007C2AF75C76080CF
:02100800FB22C9
:1007DC00EF14601614602C14604D14606C147003CC
:1007EC000208702405600302089390FE02E0547E18
:1007FC004480F0E030E0F390FE00E054FCF090FE1A
:10080C0003807A90FE04E0547E4480F0E030E0F304
:10081C0090FE00E054FC4403F090FE02E4F090FEE5
:10082C0008F090FE03F02290FE08E0547E4480F025
:10083C00E030E0F390FE00E054FC4402F090FE0443
:10084C00E4F090FE02F0A3F02290FE03E0543E444C
:10085C0080F0E030E0F390FE00E054FC4401F090B6
:10086C00FE02801990FE03E0543E44C0F0E030E0FC
:10087C00F390FE00E054FC4401F090FE02E4F09092
:08088C00FE08F090FE04F022CA
:0C110600EF90FE01700304F022EFF022D5
:1010930043BA80D209E4F50EF50D120F0A1211516D
:0310A300D2AF22A7
:0B094B009000A9EBF0A3EAF0A3E9F094
:10095600E4FFFE9000AFF0A3F0A3F0A3F09000A98F
:10096600E0FBA3E0FAA3E0F912039B70030209FC83
:100976009000ACE0FBA3E0FAA3E0F98F828E83122D
:1009860003B4FD9000A9E0FBA3E0FAA3E0F912038B
:100996009BB505070FBF00010E801E12039BFD903D
:1009A60000ACE0FBA3E0FAA3E0F912039BB5050651
:1009B6007E007F018003E4FEFF9000B2E004F07049
:1009C600069000B1E004F09000AAE475F00112046C
:1009D600159000ACE0FBA3E0FAA3E0F98F828E83CA
:1009E6001203B46003020963C39000B2E09FFF9054
:0A09F60000B1E09EFE227EFF7FFFAD
:010A000022D3
:10089400E49000C7F09000C9F09000C8F09000C840
:1008A400E0FFC3940A40030209457E00ED2FF58260
:1008B400EE3CF5831203B4FFC3648094B0404BD381
:1008C400EF648094B750439000C9E004F0E0B401B1
:1008D400179000C8E02DF582EE3CF5831203B42492
:1008E400D0C454F09000C7F09000C9E0B4021B904B
:1008F40000C8E07E002DF582EE3CF5831203B4249B
:10090400D0FF9000C7E04FFFF0229000C8E07E00C7
:100914002DF582EE3CF5831203B4FFC3648094B8D2
:10092400400ED3EF648094B950069000C9E004F0FF
:10093400EF642C600CEF60099000C8E004F002083A
:06094400A19000C7E0FFD6
:01094A00228A
:080720009000B9ECF0A3EDF02C
:10072800E4A3F0A3F0A3F09000BDE0FFC39414404D
:10073800030207D39000BAE02FFF9000B9E034001D
:100748008F82F5831203B4FFC3648094B0404ED304
:10075800EF648094B950469000BBE0FEA3E0FF7CB4
:10076800007D0A1204039000BBEEF0A3EFF0A3E0B3
:10077800FF9000BAE02FFF9000B9E034008F82F5B7
:10078800831203B4FF3395E0FEEF24D0FFEE34FF6D
:10079800FE9000BCE02FF09000BBE03EF09000BD62
:1007A800E0FF9000BAE02FFF9000B9E034008F829C
:1007B800F5831203B4FF642C6011EF642E600CEF14
:1007C80060099000BDE004F002072F9000BBE0FE36
:0307D800A3E0FF9C
:0107DB0022FB
:1005F300900097EBF0A3EAF0A3E9F0A3ECF0A3EDEE
:01060300F006
:10060400E49000A3F0A3F0A3F0A3F0A3F0A3F09070
:1006140000A1F0A3F090009AE0FEA3E0FF9000A1F7
:10062400E0FCA3E0FDC39FEC9E40030206C39000E0
:100634009CE0FBA3E0FAA3E0F99000A3E0FEA3E0B2
:10064400F5828E831203B4FF900097E0FBA3E0FAD7
:10065400A3E0F98D828C831203B4B507339000A410
:10066400E004F070069000A3E004F090009FE0FE28
:10067400A3E0FF9000A3E0B50631A3E0B5072C90FA
:1006840000A1E0FFA3E09000A7CFF0A3EFF0802F3C
:10069400E49000A3F0A3F09000A2E02401FE9000F7
:1006A400A1E034009000A5F0A3CEF09000A2E004F5
:1006B400F060030206199000A1E004F0020619900C
:1006C40000A7E0FEA3E0FF9000A5E0FCA3E0FDD3BB
:1006D4009FEC9E50449000A1ECF0A3EDF09000A795
:1006E400E0FEA3E0FF9000A1E0FCA3E0FDC39FECCB
:1006F4009E5023900097E0FBA3E0FAA3E0F98D82DB
:100704008C83E41203E19000A2E004F070CF900027
:0B071400A1E004F080C77F01227F00FD
:01071F0022B7
:081128000102040810204080C0
:100C3C00EF64886052EF54F0F50FEF540FFE9011F3
:100C4C002893F510EED39407503DED6017E50F2473
:100C5C00B060092420703090FE13800390FE15E0E4
:100C6C004510F022E50F24B060112420701990FE7D
:100C7C0013E0FFE510F4FEEF5EF02290FE15E0FFAE
:070C8C00E510F4FEEF5EF03D
:010C9300223E
:100EA700EB6015EF24B060092420702590FE1380B5
:100EB7000390FE15E04DF022EF24B0600924207066
:100EC7001090FE13800390FE15E0FFEDF4FEEF5E39
:020ED700F02207
:100A0100EF64887003020AA5EF54F0F50FEF540F5D
:100A1100FE90112893F510EED394074003020AA526
:100A2100E50F24B060092420707A750F03800375E7
:100A31000F05EDD39403506CE50F64037030ED7036
:100A410007E510F452B152B2EDB40109E51042B11B
:100A5100E510F452B2EDB40208E51042B1E51042DE
:100A6100B2EDB40309E510F452B1E51042B2E50F5D
:100A710064057030ED7007E510F452C952CAEDB447
:100A81000109E51042C9E510F452CAEDB40208E5C6
:100A91001042C9E51042CAEDB40309E510F452C988
:040AA100E51042CA50
:010AA500222E
:100B7C00EBD39403505CEF64037029EB7006EDF437
:100B8C0052B152B2EBB40107ED42B1EDF452B2EBFB
:100B9C00B40206ED42B1ED42B2EBB40307EDF452F0
:100BAC00B1ED42B2EF64057029EB7006EDF452C959
:100BBC0052CAEBB40107ED42C9EDF452CAEBB402D0
:100BCC0006ED42C9ED42CAEBB40307EDF452C9ED90
:030BDC0042CA22E8
:100AA600EF64886065EF54F0F50FEF540FFE901178
:100AB6002893F510EED394075050E50F24B0600943
:100AC60024207046750F038003750F05EDB40117DA
:100AD600E50F24FB60092402703090FE238003900A
:100AE600FE25E04510F022E50F24FB60112402707C
:100AF6001990FE23E0FFE510F4FEEF5EF02290FE73
:0A0B060025E0FFE510F4FEEF5EF0BD
:010B100022C2
:100B1100EF64886065EF54F0F50FEF540FFE90110C
:100B21002893F510EED394075050E50F24B06009D7
:100B310024207046750F038003750F05EDB401176E
:100B4100E50F24FB60092402703090FE2B80039096
:100B5100FE2DE04510F022E50F24FB601124027008
:100B61001990FE2BE0FFE510F4FEEF5EF02290FEFF
:0A0B71002DE0FFE510F4FEEF5EF04A
:010B7B002257
:1010B800EF24FB6007240270078DB022AF058FC8AC
:0110C8002205
:1010A600EF24FB600724027006AFB022AFC8227F90
:0210B600FF2217
:100D2C00EF64886041EF54F0F50FEF540FFE901113
:100D3C002893F510EED39407502CED6014E50F2496
:100D4C00B060092420701FE51042B022E51042C8A3
:100D5C0022E50F24B0600A2420700BE510F452B089
:060D6C0022E510F452C85C
:010D7200225E
:100DF800EFB488037F0022EF54F0F50FEF540FFE95
:100E080090112893F510EED3940740037F0122E553
:100E18000F24B060092420700885B011800385C8AC
:0C0E280011E511551060037F01227F00CE
:010E3400229B
:100F6A00EF64886028EF54F0F50FEF540FFE9011EC
:100F7A002893F510EED394075013E50F24B06009B7
:0D0F8A0024207009E51062B022E51062C855
:010F97002237
:1010C900EF24FB600824027007ED62B022ED62C8CC
:0110D90022F4
:100F9800A907EB6011E924FB60082402701AED42EE
:100FA800B022ED42C822E924FB600924027009ED51
:090FB800F452B022EDF452C822FB
:10100A00EF24FB600C24FD600C2405700BAEB0804D
:10101A0007AEC880037F0122EE5D60037F01227F55
:01102A0000C5
:01102B0022A2
:0D00260075AB8F75AAFF0043870200002212
:0711300000438701000022CB
:0411490075C12E221C
:04114D0043C1102268
:0411510075FF4022C4
:0611370030313233545543
:100F0A0075985053873F538EDEE4FD7F01120C948F
:100F1A009000BF12056A0001C2007F01120F3A4316
:100F2A008E4053890FC2ABC28FD28EC20AD2AC2274
:100C94009000BEEDF0EF1470449000BEE0FF54C02D
:100CA400FEE5A2543F4EF5A2EFC41313540325E00E
:100CB4002437F582E43411F583E493FFE4FD120A4A
:100CC400019000BEE0C41313540325E02438F582D8
:0E0CD400E43411F583E493FF7D03120A01223C
:050F3A009000BEEFF085
:100F3F00A3E0F8A3E0F9A3E0FAA3E0FB7FB07E8380
:100F4F007D857C001204CCC3E49FFFE49EFE9000DD
:0A0F5F00BEE01470058F8BEEF58DD7
:010F69002265
:0E10EA00EF147009AF058F99D20A200AFD227B
:10104B00EF147016EB6006D29BD29B8004C29BC23E
:0B105B009BAF058F99D20A200AFD22EE
:100E70009000CAEBF0A3EAF0A3E9F0AE079000CA35
:100E8000E0FBA3E0FAA3E0F912039B6019AF069020
:100E900000CAA3E475F00112042BA9F0FA12039B17
:070EA000FD1210EA80D722C9
:0E0BDF00900000EFF0A3EBF0A3EAF0A3E9F022
:100BED0090006C7401F0A37400F0A37404F09000F5
:100BFD0001E0F9A3E0FAA3E09000B3C9F0A3EAF095
:100C0D00A3E9F090006CE0F9A3E0FAA3E09000B640
:100C1D00C9F0A3EAF0A3E9F07B017A00792C120C5C
:0F0C2D00E2900000E0FF7B017A00792C020E704C
:0E10F800E4FD7F32120A01D2B2C288D2A822D1
:06113D00EF7002D2A822AF
:06114300EF7002C2A822B9
:0C111200EF7008ED6003D28822C2882232
:1010DA0053B7FEC2B853B7EFC2BC53B7BFC2BE22A2
:03000300020E35B5
:100E3500C0E0C0F0C083C082C0D075D000C000C083
:100E450001C002C003C004C005C006C0071210805F
:100E5500D007D006D005D004D003D002D001D000F1
:0B0E6500D0D0D082D083D0F0D0E0329B
:03002300020D7358
:100D7300C0E0C0F0C083C082C0D075D000C000C046
:100D830001C002C003C004C005C006C007309805F7
:100D9300C298120FE8309904C299C20AD007D0064C
:100DA300D005D004D003D002D001D000D0D0D0825F
:070DB300D083D0F0D0E03244
:03003300020DBA01
:100DBA00C0E0C0F0C083C082C0D075D000C000C0FF
:100DCA0001C002C003C004C005C006C0075387DFC4
:100DDA00120000D007D006D005D004D003D002D02C
:0E0DEA0001D000D0D0D082D083D0F0D0E03243
:10039B00BB010689828A83E0225002E722BBFE0260
:0903AB00E32289828A83E4932293
:1003B400BB010CE58229F582E5833AF583E02250FE
:1003C40006E92582F8E622BBFE06E92582F8E22248
:0D03D400E58229F582E5833AF583E4932262
:1003E100F8BB010DE58229F582E5833AF583E8F052
:1003F100225006E92582C8F622BBFE05E92582C8FE
:02040100F222E5
:10040300EF8DF0A4A8F0CF8CF0A428CE8DF0A42E0D
:02041300FE22C7
:10041500C5F0F8A3E028F0C5F0F8E5821582700272
:060425001583E038F0220F
:10042B00A3F8E0C5F025F0F0E58215827002158384
:06043B00E0C838F0E822E1
:10044100E88FF0A4CC8BF0A42CFCE98EF0A42CFC5A
:100451008AF0EDA42CFCEA8EF0A4CDA8F08BF0A4D8
:100461002DCC3825F0FDE98FF0A42CCD35F0FCEB37
:100471008EF0A4FEA9F0EB8FF0A4CFC5F02ECD39FC
:0F048100FEE43CFCEAA42DCE35F0FDE43CFC2269
:1004900075F008758200EF2FFFEE33FECD33CDCC23
:1004A00033CCC58233C5829BED9AEC99E5829840A6
:1004B0000CF582EE9BFEED9AFDEC99FC0FD5F0D683
:1004C000E4CEFBE4CDFAE4CCF9A88222B800C1B9AD
:1004D0000059BA002DEC8BF084CFCECDFCE5F0CBEB
:1004E000F97818EF2FFFEE33FEED33FDEC33FCEB24
:1004F00033FB10D703994004EB99FB0FD8E5E4F9DF
:10050000FA227818EF2FFFEE33FEED33FDEC33FCCB
:10051000C933C910D7059BE99A4007EC9BFCE99ABF
:10052000F90FD8E0E4C9FAE4CCFB2275F010EF2F04
:10053000FFEE33FEED33FDCC33CCC833C810D70704
:100540009BEC9AE899400AED9BFDEC9AFCE899F83F
:0E0550000FD5F0DAE4CDFBE4CCFAE4C8F922D2
:0C055E00ECF0A3EDF0A3EEF0A3EFF02210
:10056A00A8828583F0D083D0821205811205811278
:10057A000581120581E473E493A3C583C5F0C5839D
:10058A00C8C582C8F0A3C583C5F0C583C8C582C8DB
:01059A00223E
:100CE2009000B3E0FFA3E0FEA3E0CF900072F0A378
:100CF200EEF0A3EFF09000B6E0CBF0A3E0CAF0A3D1
:100D0200E0C9F07F22900075AD82AC8312039B8D07
:100D1200828C83F0A309E970010ADFEC9000B6E04F
:0A0D2200FBA3E0FAA3E0F902009B36
:10003600E5082472F582E43400F583E00508229091
:10004600006F300703900072E475F0011205AD02EF
:10005600039B2000E97F2ED2008018EF540F2490D6
:10006600D43440D4FF30040BEF24BFB41A0050033D
:100076002461FFE50960021509050CE50C7002050F
:100086000B30070E90006FE475F0011205ADEF021C
:10009600059B020FC17403D2078003E4C207F5086B
:1000A60090006F1205C4E4F509F50BF50CE509603F
:1000B600077F2012007980F5750AFFC201C200C2CF
:1000C60002C203C205C206C208120045FF700D3007
:1000D60007057F0012008AAF0CAE0B22B4255FC263
:1000E600D5C204120045FF24D0B40A00501A75F098
:1000F6000A780930D50508B6FF0106C6A426F620FB
:10010600D5047002D20380D924CFB41A00EF50046C
:10011600C2E5D20402028BD20180C6D20080C0D2D0
:100126000280BCD2D580BAD20580B47F2012007975
:100136002002077401B5090040F1120036FF1200D3
:10014600790200B3D208D2068095120036FB12005F
:1001560036FA120036F94A4B7006795C7A037BFF51
:1001660020022EE509602A7E008E82758300120326
:10017600B460060EEE650A70F0C2D5EBC0E0EAC0C8
:10018600E0E9C0E0EE1202D2D0E0F9D0E0FAD0E029
:10019600FB12039BFF60AAEBC0E0EAC0E0E9C0E007
:1001A600120079D0E02401F9D0E03400FAD0E0FB67
:1001B600E50A0460DCD50AD980877BFF7A0279CE0E
:1001C600D202809C791080027908C206C208800893
:1001D600D2D5790A8004790AC2D5E50A047002F5F7
:1001E6000AE4FAFDFEFF120036FC7B08200113121A
:1001F6000036FD7B1030000A120036FE120036FF74
:100206007B20EC3382D592D55013C3E43000069F91
:10021600FFE49EFEE42001039DFDE49CFCE4CBF894
:10022600C201EC700CCFCECDCCE824F8F870F38088
:1002360017C3EF33FFEE33FEED33FDEC33FCEB3348
:10024600FB994002FB0FD8E9EB300105F8D0E0C47A
:1002560048B201C0E00AEC4D4E4F78207B0070C2D8
:10026600EAB50A0040BCC0E01202D4D0F0D0E020CB
:100276000104C4C0E0C4B201C0F0120062D0F0D5DF
:10028600F0EB0200B31205CD01505301CA5801210B
:100296004C011D4201CE4F01D64401D649013643D9
:0802A60001DC5501C04601C056
:1002AE004501C047037C5001252D01292E014C2B01
:1002BE00012D23014A2003652A00E5480000014470
:1002CE003F3F3F00790AA2D5200314300509B9102B
:1002DE00020404B9080104A2D5200602500104202C
:1002EE0002689202B509005034C0E07F2030031935
:1002FE007F30A20272067205500F12032BC202C289
:10030E0006C205C2087F30800F300503E9C0E01237
:10031E000079300503D0E0F9D0E0B509CC300517EF
:10032E007F30B9100C1200797F583004077F788027
:10033E0003B908031200793002057F2D0200797F80
:10034E00202008F87F2B2006F322920280CF286E01
:10035E00756C6C2900D2011200363001F8C201789A
:10036E000930D50108F60200E52D50434958120018
:10037E00362403B405004001E49003779312006A1B
:0D038E00743A12006AD2037509040201CA14
:10059B00BB010689828A83F0225002F722BBFE013F
:0205AB00F32239
:1005AD00F8E0FBA3A3E0F925F0F0E58215827002D7
:0705BD001583E0FA38F0227B
:0905C400EBF0A3EAF0A3E9F02238
:1005CD00D083D082F8E4937012740193700DA3A3BD
:1005DD0093F8740193F5828883E4737402936860D1
:0605ED00EFA3A3A380DFD1
:100FC100EFB40A07740D120FCC740A309811A89966
:100FD100B8130CC2983098FDA899C298B811F63090
:070FE10099FDC299F5992268
:00000001FF
