:10102A0048656C6C6F2C4543424D2069732072757C
:10103A006E696E672061742025642074696D65731A
:04104A002E0D0A005D
:041173004100C50072
:100FDC001211009000C5E004F07BFF7A10792AE032
:100FEC00FF900004E4F0A3EFF07F01120C697FE89E
:070FFC007E0312000680DCF9
:03000000020A965B
:100A9600787FE4F6D8FD9000007F007E20E4F0A386
:0A0AA600DFFCDEFA758121020AEB85
:10000600EF4E60167DAC7C0DED1D70011C144C701E
:0A001600F7EF1F70011E144E70EA90
:0100200022BD
:09114F00EF1F70011E144E70F731
:011158002274
:10109200E4FCFD7B047AFF7906F81204319000BE6D
:0F10A20012054E9000BEE0C313FEA3E013FF2221
:10104E00E50E6599600885990EE4F50D8005300969
:10105E0002050DE50DC394E94007C2AF75C7608068
:02106E00FB2263
:1007CC00EF14601614602C14604D14606C147003DC
:1007DC000208602405600302088390FE02E0547E48
:1007EC004480F0E030E0F390FE00E054FCF090FE2A
:1007FC0003807A90FE04E0547E4480F0E030E0F315
:10080C0090FE00E054FC4403F090FE02E4F090FEF5
:10081C0008F090FE03F02290FE08E0547E4480F035
:10082C00E030E0F390FE00E054FC4402F090FE0453
:10083C00E4F090FE02F0A3F02290FE03E0543E445C
:10084C0080F0E030E0F390FE00E054FC4401F090C6
:10085C00FE02801990FE03E0543E44C0F0E030E00C
:10086C00F390FE00E054FC4401F090FE02E4F090A2
:08087C00FE08F090FE04F022DA
:0C112C00EF90FE01700304F022EFF022AF
:1011000043BA80D209E4F50EF50D120F25D2AF22B5
:0B093B009000AFEBF0A3EAF0A3E9F09E
:10094600E4FFFE9000B5F0A3F0A3F0A3F09000AF93
:10095600E0FBA3E0FAA3E0F912038B70030209ECB3
:100966009000B2E0FBA3E0FAA3E0F98F828E831237
:1009760003A4FD9000AFE0FBA3E0FAA3E0F91203A5
:100986008BB505070FBF00010E801E12038BFD906D
:1009960000B2E0FBA3E0FAA3E0F912038BB505066B
:1009A6007E007F018003E4FEFF9000B8E004F07053
:1009B600069000B7E004F09000B0E475F001120470
:1009C600059000B2E0FBA3E0FAA3E0F98F828E83E4
:1009D6001203A46003020953C39000B8E09FFF907E
:0A09E60000B7E09EFE227EFF7FFFB7
:0109F00022E4
:10088400E49000C2F09000C4F09000C3F09000C364
:10089400E0FFC3940A40030209357E00ED2FF58280
:1008A400EE3CF5831203A4FFC3648094B0404BD3A1
:1008B400EF648094B750439000C4E004F0E0B401C6
:1008C400179000C3E02DF582EE3CF5831203A424B7
:1008D400D0C454F09000C2F09000C4E0B4021B9065
:1008E40000C3E07E002DF582EE3CF5831203A424C0
:1008F400D0FF9000C2E04FFFF0229000C3E07E00E2
:100904002DF582EE3CF5831203A4FFC3648094B8F2
:10091400400ED3EF648094B950069000C4E004F014
:10092400EF642C600CEF60099000C3E004F002084F
:06093400919000C2E0FFFB
:01093A00229A
:080710009000B9ECF0A3EDF03C
:10071800E4A3F0A3F0A3F09000BDE0FFC39414405D
:10072800030207C39000BAE02FFF9000B9E034003D
:100738008F82F5831203A4FFC3648094B0404ED324
:10074800EF648094B950469000BBE0FEA3E0FF7CC4
:10075800007D0A1203F39000BBEEF0A3EFF0A3E0D4
:10076800FF9000BAE02FFF9000B9E034008F82F5C7
:10077800831203A4FF3395E0FEEF24D0FFEE34FF8D
:10078800FE9000BCE02FF09000BBE03EF09000BD72
:10079800E0FF9000BAE02FFF9000B9E034008F82AC
:1007A800F5831203A4FF642C6011EF642E600CEF34
:1007B80060099000BDE004F002071F9000BBE0FE56
:0307C800A3E0FFAC
:0107CB00220B
:1005E30090009DEBF0A3EAF0A3E9F0A3ECF0A3EDF8
:0105F300F017
:1005F400E49000A9F0A3F0A3F0A3F0A3F0A3F0907B
:1006040000A7F0A3F09000A0E0FEA3E0FF9000A7F5
:10061400E0FCA3E0FDC39FEC9E40030206B3900000
:10062400A2E0FBA3E0FAA3E0F99000A9E0FEA3E0B6
:10063400F5828E831203A4FF90009DE0FBA3E0FAF1
:10064400A3E0F98D828C831203A4B507339000AA2A
:10065400E004F070069000A9E004F09000A5E0FE2C
:10066400A3E0FF9000A9E0B50631A3E0B5072C9004
:1006740000A7E0FFA3E09000ADCFF0A3EFF0802F40
:10068400E49000A9F0A3F09000A8E02401FE9000FB
:10069400A7E034009000ABF0A3CEF09000A8E004F3
:1006A400F060030206099000A7E004F00206099036
:1006B40000ADE0FEA3E0FF9000ABE0FCA3E0FDD3BF
:1006C4009FEC9E50449000A7ECF0A3EDF09000AD99
:1006D400E0FEA3E0FF9000A7E0FCA3E0FDC39FECD5
:1006E4009E502390009DE0FBA3E0FAA3E0F98D82E5
:1006F4008C83E41203D19000A8E004F070CF900042
:0B070400A7E004F080C77F01227F0007
:01070F0022C7
:0811590001020408102040808F
:100CC600EF64886052EF54F0F50FEF540FFE901169
:100CD6005993F510EED39407503DED6017E50F24B8
:100CE600B060092420703090FE13800390FE15E05A
:100CF6004510F022E50F24B060112420701990FEF3
:100D060013E0FFE510F4FEEF5EF02290FE15E0FF23
:070D1600E510F4FEEF5EF0B2
:010D1D0022B3
:100EF300EB6015EF24B060092420702590FE138069
:100F03000390FE15E04DF022EF24B0600924207019
:100F13001090FE13800390FE15E0FFEDF4FEEF5EEC
:020F2300F022BA
:1009F100EF64887003020A95EF54F0F50FEF540F7E
:100A0100FE90115993F510EED394074003020A9515
:100A1100E50F24B060092420707A750F03800375F7
:100A21000F05EDD39403506CE50F64037030ED7046
:100A310007E510F452B152B2EDB40109E51042B12B
:100A4100E510F452B2EDB40208E51042B1E51042EE
:100A5100B2EDB40309E510F452B1E51042B2E50F6D
:100A610064057030ED7007E510F452C952CAEDB457
:100A71000109E51042C9E510F452CAEDB40208E5D6
:100A81001042C9E51042CAEDB40309E510F452C998
:040A9100E51042CA60
:010A9500223E
:100C0600EBD39403505CEF64037029EB7006EDF4AC
:100C160052B152B2EBB40107ED42B1EDF452B2EB70
:100C2600B40206ED42B1ED42B2EBB40307EDF45265
:100C3600B1ED42B2EF64057029EB7006EDF452C9CE
:100C460052CAEBB40107ED42C9EDF452CAEBB40245
:100C560006ED42C9ED42CAEBB40307EDF452C9ED05
:030C660042CA225D
:100B3000EF64886065EF54F0F50FEF540FFE9011ED
:100B40005993F510EED394075050E50F24B0600987
:100B500024207046750F038003750F05EDB401174F
:100B6000E50F24FB60092402703090FE238003907F
:100B7000FE25E04510F022E50F24FB6011240270F1
:100B80001990FE23E0FFE510F4FEEF5EF02290FEE8
:0A0B900025E0FFE510F4FEEF5EF033
:010B9A002238
:100B9B00EF64886065EF54F0F50FEF540FFE901182
:100BAB005993F510EED394075050E50F24B060091C
:100BBB0024207046750F038003750F05EDB40117E4
:100BCB00E50F24FB60092402703090FE2B8003900C
:100BDB00FE2DE04510F022E50F24FB60112402707E
:100BEB001990FE2BE0FFE510F4FEEF5EF02290FE75
:0A0BFB002DE0FFE510F4FEEF5EF0C0
:010C050022CC
:1010DE00EF24FB6007240270078DB022AF058FC886
:0110EE0022DF
:1010CC00EF24FB600724027006AFB022AFC8227F6A
:0210DC00FF22F1
:100DB600EF64886041EF54F0F50FEF540FFE901189
:100DC6005993F510EED39407502CED6014E50F24DB
:100DD600B060092420701FE51042B022E51042C819
:100DE60022E50F24B0600A2420700BE510F452B0FF
:060DF60022E510F452C8D2
:010DFC0022D4
:100E4400EFB488037F0022EF54F0F50FEF540FFE48
:100E540090115993F510EED3940740037F0122E5D6
:100E64000F24B060092420700885B011800385C860
:0C0E740011E511551060037F01227F0082
:010E8000224F
:100F8500EF64886028EF54F0F50FEF540FFE9011D1
:100F95005993F510EED394075013E50F24B060096B
:0D0FA50024207009E51062B022E51062C83A
:010FB200221C
:1010EF00EF24FB600824027007ED62B022ED62C8A6
:0110FF0022CE
:100FB300A907EB6011E924FB60082402701AED42D3
:100FC300B022ED42C822E924FB600924027009ED36
:090FD300F452B022EDF452C822E0
:10107000EF24FB600C24FD600C2405700BAEB080E7
:1010800007AEC880037F0122EE5D60037F01227FEF
:01109000005F
:01109100223C
:0611610030313233545519
:100F250075985053873F538EDEE4FD7F01120D1EE9
:100F350090000112055A0001C2007F01120F5543AE
:100F45008E4053890FC2ABC28FD28EC20AD2AC2259
:100D1E00900000EDF0EF147044900000E0FF54C01E
:100D2E00FEE5A2543F4EF5A2EFC41313540325E083
:100D3E002461F582E43411F583E493FFE4FD120996
:100D4E00F1900000E0C41313540325E02462F582F1
:0E0D5E00E43411F583E493FF7D031209F122C2
:050F5500900000EFF028
:100F5A00A3E0F8A3E0F9A3E0FAA3E0FB7FB07E8365
:100F6A007D857C001204BCC3E49FFFE49EFE9000D2
:0A0F7A0000E01470058F8BEEF58D7A
:010F8400224A
:0E111000EF147009AF058F99D20A200AFD2254
:1010B100EF147016EB6006D29BD29B8004C29BC2D8
:0B10C1009BAF058F99D20A200AFD2288
:100EBC0090006FEBF0A3EAF0A3E9F0AE0790006F9F
:100ECC00E0FBA3E0FAA3E0F912038B6019AF0690E4
:100EDC00006FA3E475F00112041BA9F0FA12038B46
:070EEC00FD12111080D72256
:0E0C6900900000EFF0A3EBF0A3EAF0A3E9F097
:100C770090006C7401F0A37400F0A37404F090006A
:100C870001E0F9A3E0FAA3E090006FC9F0A3EAF04E
:100C9700A3E9F090006CE0F9A3E0FAA3E0900072FA
:100CA700C9F0A3EAF0A3E9F07B017A00792C120DD1
:0F0CB7006C900000E0FF7B017A00792C020EBCEC
:0E111E00E4FD7F321209F1D2B2C288D2A822BB
:06116700EF7002D2A82285
:06116D00EF7002C2A8228F
:0C113800EF7008ED6003D28822C288220C
:0B11440053B7FEC2B853B7EFC2BC2285
:03000300020E8169
:100E8100C0E0C0F0C083C082C0D075D000C000C037
:100E910001C002C003C004C005C006C007120000A3
:100EA100D007D006D005D004D003D002D001D000A5
:0B0EB100D0D0D082D083D0F0D0E0324F
:03002300020DFDCE
:100DFD00C0E0C0F0C083C082C0D075D000C000C0BC
:100E0D0001C002C003C004C005C006C0073098056C
:100E1D00C29812104E309904C299C20AD007D0065A
:100E2D00D005D004D003D002D001D000D0D0D082D4
:070E3D00D083D0F0D0E032B9
:100AB000020FDCE493A3F8E493A34003F68001F271
:100AC00008DFF48029E493A3F85407240CC8C33347
:100AD000C4540F4420C8834004F456800146F6DF16
:100AE000E4800B0102040810204080901173E47E22
:100AF000019360BCA3FF543F30E509541FFEE4930B
:100B0000A360010ECF54C025E060A840B8E493A3D1
:100B1000FAE493A3F8E493A3C8C582C8CAC583CAFC
:100B2000F0A3C8C582C8CAC583CADFE9DEE780BEB4
:011177000077
:10038B00BB010689828A83E0225002E722BBFE0270
:09039B00E32289828A83E49322A3
:1003A400BB010CE58229F582E5833AF583E022500E
:1003B40006E92582F8E622BBFE06E92582F8E22258
:0D03C400E58229F582E5833AF583E4932272
:1003D100F8BB010DE58229F582E5833AF583E8F062
:1003E100225006E92582C8F622BBFE05E92582C80E
:0203F100F222F6
:1003F300EF8DF0A4A8F0CF8CF0A428CE8DF0A42E1E
:02040300FE22D7
:10040500C5F0F8A3E028F0C5F0F8E5821582700282
:060415001583E038F0221F
:10041B00A3F8E0C5F025F0F0E58215827002158394
:06042B00E0C838F0E822F1
:10043100E88FF0A4CC8BF0A42CFCE98EF0A42CFC6A
:100441008AF0EDA42CFCEA8EF0A4CDA8F08BF0A4E8
:100451002DCC3825F0FDE98FF0A42CCD35F0FCEB47
:100461008EF0A4FEA9F0EB8FF0A4CFC5F02ECD390C
:0F047100FEE43CFCEAA42DCE35F0FDE43CFC2279
:1004800075F008758200EF2FFFEE33FECD33CDCC33
:1004900033CCC58233C5829BED9AEC99E5829840B6
:1004A0000CF582EE9BFEED9AFDEC99FC0FD5F0D693
:1004B000E4CEFBE4CDFAE4CCF9A88222B800C1B9BD
:1004C0000059BA002DEC8BF084CFCECDFCE5F0CBFB
:1004D000F97818EF2FFFEE33FEED33FDEC33FCEB34
:1004E00033FB10D703994004EB99FB0FD8E5E4F9EF
:1004F000FA227818EF2FFFEE33FEED33FDEC33FCDC
:10050000C933C910D7059BE99A4007EC9BFCE99ACF
:10051000F90FD8E0E4C9FAE4CCFB2275F010EF2F14
:10052000FFEE33FEED33FDCC33CCC833C810D70714
:100530009BEC9AE899400AED9BFDEC9AFCE899F84F
:0E0540000FD5F0DAE4CDFBE4CCFAE4C8F922E2
:0C054E00ECF0A3EDF0A3EEF0A3EFF02220
:10055A00A8828583F0D083D08212057112057112A8
:10056A000571120571E473E493A3C583C5F0C583CD
:10057A00C8C582C8F0A3C583C5F0C583C8C582C8EB
:01058A00224E
:100D6C0090006FE0FFA3E0FEA3E0CF900078F0A32B
:100D7C00EEF0A3EFF0900072E0CBF0A3E0CAF0A38A
:100D8C00E0C9F07F2290007BAD82AC8312038B8D87
:100D9C00828C83F0A309E970010ADFEC900072E009
:0A0DAC00FBA3E0FAA3E0F902008BBC
:10002600E5082478F582E43400F583E0050822909B
:100036000075300703900078E475F00112059D0203
:10004600038B2000E97F2ED2008018EF540F2490F6
:10005600D43440D4FF30040BEF24BFB41A0050034D
:100066002461FFE50960021509050CE50C7002051F
:100076000B30070E900075E475F00112059DEF0236
:10008600058B0210037403D2078003E4C207F50848
:100096009000751205B4E4F509F50BF50CE5096059
:1000A600077F2012006980F5750AFFC201C200C2EF
:1000B60002C203C205C206C208120035FF700D3027
:1000C60007057F0012007AAF0CAE0B22B4255FC283
:1000D600D5C204120035FF24D0B40A00501A75F0B8
:1000E6000A780930D50508B6FF0106C6A426F6200B
:1000F600D5047002D20380D924CFB41A00EF50047D
:10010600C2E5D20402027BD20180C6D20080C0D2F0
:100116000280BCD2D580BAD20580B47F2012006995
:100126002002077401B5090040F1120026FF1200F3
:10013600690200A3D208D2068095120026FB12009F
:1001460026FA120026F94A4B7006794C7A037BFF91
:1001560020022EE509602A7E008E82758300120336
:10016600A460060EEE650A70F0C2D5EBC0E0EAC0E8
:10017600E0E9C0E0EE1202C2D0E0F9D0E0FAD0E049
:10018600FB12038BFF60AAEBC0E0EAC0E0E9C0E027
:10019600120069D0E02401F9D0E03400FAD0E0FB87
:1001A600E50A0460DCD50AD980877BFF7A0279BE2E
:1001B600D202809C791080027908C206C2088008A3
:1001C600D2D5790A8004790AC2D5E50A047002F507
:1001D6000AE4FAFDFEFF120026FC7B08200113123A
:1001E6000026FD7B1030000A120026FE120026FFB4
:1001F6007B20EC3382D592D55013C3E43000069FA2
:10020600FFE49EFEE42001039DFDE49CFCE4CBF8A4
:10021600C201EC700CCFCECDCCE824F8F870F38098
:1002260017C3EF33FFEE33FEED33FDEC33FCEB3358
:10023600FB994002FB0FD8E9EB300105F8D0E0C48A
:1002460048B201C0E00AEC4D4E4F78207B0070C2E8
:10025600EAB50A0040BCC0E01202C4D0F0D0E020EB
:100266000104C4C0E0C4B201C0F0120052D0F0D5FF
:10027600F0EB0200A31205BD01405301BA5801116B
:100286004C010D4201BE4F01C64401C64901264339
:0802960001CC5501B04601B096
:10029E004501B047036C5001152D01192E013C2B61
:1002AE00011D23013A2003552A00D54800000134D0
:1002BE003F3F3F00790AA2D5200314300509B9103B
:1002CE00020404B9080104A2D5200602500104203C
:1002DE0002689202B509005034C0E07F2030031945
:1002EE007F30A20272067205500F12031BC202C2A9
:1002FE0006C205C2087F30800F300503E9C0E01248
:10030E000069300503D0E0F9D0E0B509CC3005170F
:10031E007F30B9100C1200697F583004077F788047
:10032E0003B908031200693002057F2D0200697FB0
:10033E00202008F87F2B2006F322920280CF286E11
:10034E00756C6C2900D2011200263001F8C20178BA
:10035E000930D50108F60200D52D50434958120038
:10036E00262403B405004001E49003679312005A5B
:0D037E00743A12005AD2037509040201BA44
:10058B00BB010689828A83F0225002F722BBFE014F
:02059B00F32249
:10059D00F8E0FBA3A3E0F925F0F0E58215827002E7
:0705AD001583E0FA38F0228B
:0905B400EBF0A3EAF0A3E9F02248
:1005BD00D083D082F8E4937012740193700DA3A3CD
:1005CD0093F8740193F5828883E4737402936860E1
:0605DD00EFA3A3A380DFE1
:10100300EFB40A07740D12100E740A309811A899E0
:10101300B8130CC2983098FDA899C298B811F6304D
:0710230099FDC299F5992225
:00000001FF
