:10164A001217897D037F541210D212000E7D507C2E
:10165A00C3E4FF12102CE4FF1217D17F887E131205
:04166A0016F480F7FB
:0317E500C2CC2251
:0300000002172ABA
:10172A00787FE4F6D8FD9000007F007E20E4F0A3E5
:0A173A00DFFCDEFA75812102164A79
:1016F400EF4E60167DAC7C0DED1D70011C144C701A
:0A170400F7EF1F70011E144E70EA8B
:01170E0022B8
:0917BE00EF1F70011E144E70F7BC
:0117C70022FF
:1016D500E4FCFD7B047AFF7906F81205ED9000CF56
:0F16E5001207189000CFE0C313FEA3E013FF22FB
:10169100E50E6599600885990EE4F50D8005300920
:1016A10002050DE50DC394E94007C2AF75C760801F
:0216B100FB221A
:100E0700EF14601614602C14604D14606C1470039A
:100E1700020E9B24056003020EBE90FE02E0547E84
:100E27004480F0E030E0F390FE00E054FCF090FEE8
:100E370003807A90FE04E0547E4480F0E030E0F3D3
:100E470090FE00E054FC4403F090FE02E4F090FEB4
:100E570008F090FE03F02290FE08E0547E4480F0F4
:100E6700E030E0F390FE00E054FC4402F090FE0412
:100E7700E4F090FE02F0A3F02290FE03E0543E441B
:100E870080F0E030E0F390FE00E054FC4401F09085
:100E9700FE02801990FE03E0543E44C0F0E030E0CB
:100EA700F390FE00E054FC4401F090FE02E4F09061
:080EB700FE08F090FE04F02299
:0C17A700EF90FE01700304F022EFF0222E
:1017890043BA80D209E4F50EF50D12156CD2AF22D9
:0B0F76009000B1EBF0A3EAF0A3E9F05B
:100F8100E4FFFE9000B7F0A3F0A3F0A3F09000B14E
:100F9100E0FBA3E0FAA3E0F9120535700302102784
:100FA1009000B4E0FBA3E0FAA3E0F98F828E8312F4
:100FB100054EFD9000B1E0FBA3E0FAA3E0F91205B4
:100FC10035B505070FBF00010E801E120535FD90D6
:100FD10000B4E0FBA3E0FAA3E0F9120535B505067C
:100FE1007E007F018003E4FEFF9000BAE004F07010
:100FF100069000B9E004F09000B2E475F00112052A
:10100100C19000B4E0FBA3E0FAA3E0F98F828E83E4
:1010110012054E6003020F8EC39000BAE09FFF904D
:0A10210000B9E09EFE227EFF7FFF73
:01102B0022A2
:100EBF00E49000D3F09000D5F09000D4F09000D4DF
:100ECF00E0FFC3940A4003020F707E00ED2FF582FE
:100EDF00EE3CF58312054EFFC3648094B0404BD3B4
:100EEF00EF648094B750439000D5E004F0E0B40174
:100EFF00179000D4E02DF582EE3CF58312054E24B9
:100F0F00D0C454F09000D3F09000D5E0B4021B9001
:100F1F0000D4E07E002DF582EE3CF58312054E24C1
:100F2F00D0FF9000D3E04FFFF0229000D4E07E007E
:100F3F002DF582EE3CF58312054EFFC3648094B805
:100F4F00400ED3EF648094B950069000D5E004F0C2
:100F5F00EF642C600CEF60099000D4E004F0020EF7
:060F6F00CC9000D3E0FF6E
:010F75002259
:080D4B009000CAECF0A3EDF0EA
:100D5300E4A3F0A3F0A3F09000CEE0FFC39414400B
:100D630003020DFE9000CBE02FFF9000CAE0340099
:100D73008F82F58312054EFFC3648094B0404ED337
:100D8300EF648094B950469000CCE0FEA3E0FF7C72
:100D9300007D0A1205AF9000CCEEF0A3EFF0A3E0C4
:100DA300FF9000CBE02FFF9000CAE034008F82F564
:100DB3008312054EFF3395E0FEEF24D0FFEE34FFA0
:100DC300FE9000CDE02FF09000CCE03EF09000CEFE
:100DD300E0FF9000CBE02FFF9000CAE034008F8249
:100DE300F58312054EFF642C6011EF642E600CEF47
:100DF30060099000CEE004F0020D5A9000CCE0FEB2
:030E0300A3E0FF6A
:010E060022C9
:100C1E0090009FEBF0A3EAF0A3E9F0A3ECF0A3EDB4
:010C2E00F0D5
:100C2F00E49000ABF0A3F0A3F0A3F0A3F0A3F09037
:100C3F0000A9F0A3F09000A2E0FEA3E0FF9000A9AE
:100C4F00E0FCA3E0FDC39FEC9E4003020CEE90007E
:100C5F00A4E0FBA3E0FAA3E0F99000ABE0FEA3E071
:100C6F00F5828E8312054EFF90009FE0FBA3E0FA02
:100C7F00A3E0F98D828C8312054EB507339000AC3B
:100C8F00E004F070069000ABE004F09000A7E0FEE7
:100C9F00A3E0FF9000ABE0B50631A3E0B5072C90C1
:100CAF0000A9E0FFA3E09000AFCFF0A3EFF0802FFB
:100CBF00E49000ABF0A3F09000AAE02401FE9000B6
:100CCF00A9E034009000ADF0A3CEF09000AAE004AC
:100CDF00F06003020C449000A9E004F0020C449071
:100CEF0000AFE0FEA3E0FF9000ADE0FCA3E0FDD37A
:100CFF009FEC9E50449000A9ECF0A3EDF09000AF54
:100D0F00E0FEA3E0FF9000A9E0FCA3E0FDC39FEC91
:100D1F009E502390009FE0FBA3E0FAA3E0F98D82A1
:100D2F008C83E412058D9000AAE004F070CF900040
:0B0D3F00A9E004F080C77F01227F00C4
:010D4A002286
:080003000102040810204080F6
:10130D00EF64886052EF54F0F50FEF540FFE90002C
:10131D000393F510EED39407503DED6017E50F24C0
:10132D00B060092420703090FE13800390FE15E00C
:10133D004510F022E50F24B060112420701990FEA5
:10134D0013E0FFE510F4FEEF5EF02290FE15E0FFD6
:07135D00E510F4FEEF5EF065
:011364002266
:10153A00EB6015EF24B060092420702590FE13801B
:10154A000390FE15E04DF022EF24B06009242070CC
:10155A001090FE13800390FE15E0FFEDF4FEEF5E9F
:02156A00F0226D
:1010D200EF64887003021176EF54F0F50FEF540FAE
:1010E200FE90000393F510EED394074003021176AD
:1010F200E50F24B060092420707A750F0380037510
:101102000F05EDD39403506CE50F64037030ED705E
:1011120007E510F452B152B2EDB40109E51042B143
:10112200E510F452B2EDB40208E51042B1E5104206
:10113200B2EDB40309E510F452B1E51042B2E50F85
:1011420064057030ED7007E510F452C952CAEDB46F
:101152000109E51042C9E510F452CAEDB40208E5EE
:101162001042C9E51042CAEDB40309E510F452C9B0
:04117200E51042CA78
:011176002256
:10124D00EBD39403505CEF64037029EB7006EDF45F
:10125D0052B152B2EBB40107ED42B1EDF452B2EB23
:10126D00B40206ED42B1ED42B2EBB40307EDF45218
:10127D00B1ED42B2EF64057029EB7006EDF452C981
:10128D0052CAEBB40107ED42C9EDF452CAEBB402F8
:10129D0006ED42C9ED42CAEBB40307EDF452C9EDB8
:0312AD0042CA2210
:10117700EF64886065EF54F0F50FEF540FFE9000B1
:101187000393F510EED394075050E50F24B0600990
:1011970024207046750F038003750F05EDB4011702
:1011A700E50F24FB60092402703090FE2380039032
:1011B700FE25E04510F022E50F24FB6011240270A4
:1011C7001990FE23E0FFE510F4FEEF5EF02290FE9B
:0A11D70025E0FFE510F4FEEF5EF0E6
:0111E10022EB
:1011E200EF64886065EF54F0F50FEF540FFE900046
:1011F2000393F510EED394075050E50F24B0600925
:1012020024207046750F038003750F05EDB4011796
:10121200E50F24FB60092402703090FE2B800390BE
:10122200FE2DE04510F022E50F24FB601124027030
:101232001990FE2BE0FFE510F4FEEF5EF02290FE27
:0A1242002DE0FFE510F4FEEF5EF072
:01124C00227F
:10175600EF24FB6007240270078DB022AF058FC807
:011766002260
:10174400EF24FB600724027006AFB022AFC8227FEB
:02175400FF2272
:1013FD00EF64886041EF54F0F50FEF540FFE90004D
:10140D000393F510EED39407502CED6014E50F24E3
:10141D00B060092420701FE51042B022E51042C8CB
:10142D0022E50F24B0600A2420700BE510F452B0B1
:06143D0022E510F452C884
:011443002286
:10148B00EFB488037F0022EF54F0F50FEF540FFEFB
:10149B0090000393F510EED3940740037F0122E5F0
:1014AB000F24B060092420700885B011800385C813
:0C14BB0011E511551060037F01227F0035
:0114C7002202
:1015CC00EF64886028EF54F0F50FEF540FFE900095
:1015DC000393F510EED394075013E50F24B0600974
:0D15EC0024207009E51062B022E51062C8ED
:0115F90022CF
:10176700EF24FB600824027007ED62B022ED62C827
:01177700224F
:1015FA00A907EB6011E924FB60082402701AED4286
:10160A00B022ED42C822E924FB600924027009EDE8
:09161A00F452B022EDF452C82292
:1016B300EF24FB600C24FD600C2405700BAEB0809E
:1016C30007AEC880037F0122EE5D60037F01227FA6
:0116D3000016
:0116D40022F3
:0617D9003031323354559B
:10156C0075985053873F538EDEE4FD7F011213654F
:10157C009000BC1207240001C2007F0112159C438D
:10158C008E4053890FC2ABC28FD28EC20AD2AC220C
:101365009000BBEDF0EF1470449000BBE0FF54C05B
:10137500FEE5A2543F4EF5A2EFC41313540325E036
:1013850024D9F582E43417F583E493FFE4FD1210C4
:10139500D29000BBE0C41313540325E024DAF58290
:0E13A500E43417F583E493FF7D031210D22287
:05159C009000BBEFF020
:1015A100A3E0F8A3E0F9A3E0FAA3E0FB7FB07E8318
:1015B1007D857C00120678C3E49FFFE49EFE9000C7
:0A15C100BBE01470058F8BEEF58D72
:0115CB0022FD
:0E179900EF147009AF058F99D20A200AFD22C5
:10170F00EF147016EB6006D29BD29B8004C29BC273
:0B171F009BAF058F99D20A200AFD2223
:101503009000D6EBF0A3EAF0A3E9F0AE079000D683
:10151300E0FBA3E0FAA3E0F91205356019AF0690EA
:1015230000D6A3E475F0011205D7A9F0FA12053528
:07153300FD12179980D72279
:0E12B000900000EFF0A3EBF0A3EAF0A3E9F04A
:1012BE0090006C7401F0A37400F0A37404F090001D
:1012CE0001E0F9A3E0FAA3E09000C4C9F0A3EAF0AC
:1012DE00A3E9F090006CE0F9A3E0FAA3E09000C758
:1012EE00C9F0A3EAF0A3E9F07B017A00792C12137E
:0F12FE00B3900000E0FF7B017A00792C0215030A
:0817D100EF7004C28DD28C22DE
:0617DF00EF7002C28C2233
:10166E009000D9EFF0ED600AE07017438F017D0313
:10167E00800B9000D9E0700A538FFEE4FD7F351287
:03168E0010D22255
:10000E00E58E547F4480F58E5389F0758A01E4F5B0
:04001E008CD2A922B5
:0B102C009000BBEFF0A3ECF0A3EDF090
:101037004C70030210D17F507E079000C07457F0A8
:10104700A374C5F09000BCE0FCA3E0FDD39FEC9E29
:101057005013A3E4F0A304F0E4120131E4FBFA799E
:101067000C784280299000C0E0FEA3E0FF9000BC0E
:10107700E0FCA3E0FDD39FEC9E5026A3E4F0A3740D
:101087000CF0E41201317BAB7AAA793A784012006E
:101097002612016AC3E49FFFE49E9000C2F0A3EF0B
:1010A700F09000BBE070239000BEE07004A3E06402
:1010B700017005438E808003538E7F9000C2E0FE4F
:0A10C700A3E0F58AEEF58C5389FBD7
:0110D10022FC
:0917C800EF70058D8AECF58C220E
:10177800E4FDFCEF7006AF8CEFAD8AFCAE04AF055C
:01178800223E
:0B17B30053B7FDC2B953B7EFC2BC2210
:03000B000214C814
:1014C800C0E0C0F0C083C082C0D075D000C000C0EA
:1014D80001C002C003C004C005C006C0071217E55A
:1014E800D007D006D005D004D003D002D001D00058
:0B14F800D0D0D082D083D0F0D0E03202
:0300230002144480
:10144400C0E0C0F0C083C082C0D075D000C000C06E
:1014540001C002C003C004C005C006C0073098051F
:10146400C298121691309904C299C20AD007D006C4
:10147400D005D004D003D002D001D000D0D0D08287
:07148400D083D0F0D0E0326C
:10002600EC4D6011E8497017ED33EC3304600DE4D4
:10003600FCFFFEFD22E933E8330470F80201D61214
:1000460001A158046009E4CC248150062850090215
:1000560001E02840030201DDC0E0EB4A7044B980AC
:1000660006D0E0FB0201CCEF4E701CBD8008EBFF12
:10007600EAFEE9FD80EBE98DF0A4FEE5F002010F52
:10008600E9CDF9EAFEEBFFEF89F0A4FCE5F0CE89B5
:10009600F0A42EFFE435F0CD89F0A42DFEE435F072
:1000A6008067EF4E7005BD80D780C3EF8BF0A4ACA0
:1000B600F0EE8BF0A42CFCE435F0F8EF8AF0A42CDB
:1000C600E5F038FCE433CB8DF0A42CFCE5F03BF8EE
:1000D600EE8AF0A42CFCE5F038F8E433CF89F0A4DE
:1000E6002CFCE5F038CF3400CE89F0A42FFFE5F0E4
:1000F6003EFEE433C98DF0A42EFEE5F039CD8AF03C
:10010600A42FFFE5F03EFEE43DFD33D0E0FB5007B3
:100116000BBB000F0201E0EC2CFCEF33FFEE33FECD
:06012600ED33FD0201B8FB
:10012C0075F020800E75F010800575F0087D007E4E
:10013C00007F003392D530D50312070AEC33401000
:10014C00EF33FFEE33FEED33FDEC33FCD5F0ED2257
:0E015C00E5F0247EA2D513CC92E7CDCEFF2293
:10016A00EDD2E7CD33EC3392D524814006E4FFFE8D
:10017A00FDFC22FCE4CFCECDCC24E0501174FF80EC
:10018A00EDC3CC13CCCD13CDCE13CECF13CF047089
:07019A00F030D5DE02070A78
:1013B3009000C4E0FFA3E0FEA3E0CF900072F0A38F
:1013C300EEF0A3EFF09000C7E0CBF0A3E0CAF0A3E8
:1013D300E0C9F07F22900075AD82AC831205358D94
:1013E300828C83F0A309E970010ADFEC9000C7E067
:0A13F300FBA3E0FAA3E0F9020800F2
:1001A100E9D2E7C933E833F892D5EDD2E7CD33ECA4
:0701B10033FC5002B2D5221D
:1001B800EC30E7100FBF000C0EBE00080DBD0004A8
:1001C8000BEB6014A2D5EB13FCED92E7FD2274FF54
:1001D800FCFDFEFF22E480F8A2D574FF13FC7D80AD
:0301E800E480EFC1
:10079B00E5082472F582E43400F583E00508229025
:1007AB00006F300703900072E475F00112075502D9
:1007BB0005352000E97F2ED2008018EF540F2490CE
:1007CB00D43440D4FF30040BEF24BFB41A005003D1
:1007DB002461FFE50960021509050CE50C700205A3
:1007EB000B30070E90006FE475F001120755EF0206
:1007FB00057B0216237403D2078003E4C207F508B6
:10080B0090006F12076CE4F509F50BF50CE5096028
:10081B00077F201207DE80F5750AFFC201C200C2F6
:10082B0002C203C205C206C2081207AAFF700D302E
:10083B0007057F001207EFAF0CAE0B22B4255FC28A
:10084B00D5C2041207AAFF24D0B40A00501A75F0BF
:10085B000A780930D50508B6FF0106C6A426F6208E
:10086B00D5047002D20380D924CFB41A00EF500400
:10087B00C2E5D204020AE1D20180C6D20080C0D206
:10088B000280BCD2D580BAD20580B47F201207DE9D
:10089B002002077401B5090040F112079BFF1207F4
:1008AB00DE020818D208D206809512079BFB1207AE
:1008BB009BFA12079BF94A4B700679DF7A0B7BFF89
:1008CB0020022EE509602A7E008E827583001205B8
:1008DB004E60060EEE650A70F0C2D5EBC0E0EAC0C2
:1008EB00E0E9C0E0EE120B42D0E0F9D0E0FAD0E044
:1008FB00FB120535FF60AAEBC0E0EAC0E0E9C0E0FF
:10090B001207DED0E02401F9D0E03400FAD0E0FB8E
:10091B00E50A0460DCD50AD98087D20280A2120BCB
:10092B002460F7E50A7001041201EBA90A600DE5DA
:10093B000A600914F50A120BCCEF60F3EA30E702F8
:10094B00F404C3995079EAF4250A0430E701E4046E
:10095B00F50A800D120B2460C1EA050A250A120163
:10096B00EBEA90009EF030E701E4250A04D50A0477
:10097B0020050114120B42E4C0E0120BCC90009E38
:10098B00E0601320E70714F01207C6802204F0D0B2
:10099B00E014C0E07F001207C6E50A60071207BD2E
:1009AB00150A800B3005031207BDD0E0020818D0E2
:1009BB00E00480C4120B24609EE50A041201EB9044
:1009CB00009EEAF0E50A2005026001042404120BE4
:0109DB0042D9
:1009DC0074FF04C0E0120BCC1207C6E50A20050216
:1009EC0060031207BDD0E0B50AE87F451207D0902E
:1009FC00009EE07F2B30E7047F2DF404C0E012074B
:100A0C00DED0E075F00A84C0F01207C7D0E0120700
:100A1C00C7020818791080027908C206C20880083B
:100A2C00D2D5790A8004790AC2D5E50A047002F598
:100A3C000AE4FAFDFEFF12079BFC7B08200113124F
:100A4C00079BFD7B1030000A12079BFE12079BFFD1
:100A5C007B20EC3382D592D55013C3E43000069F33
:100A6C00FFE49EFEE42001039DFDE49CFCE4CBF836
:100A7C00C201EC700CCFCECDCCE824F8F870F3802A
:100A8C0017C3EF33FFEE33FEED33FDEC33FCEB33EA
:100A9C00FB994002FB0FD8E9EB300105F8D0E0C41C
:100AAC0048B201C0E00AEC4D4E4F78207B0070C27A
:100ABC00EAB50A0040BCC0E0120B44D0F0D0E020F4
:100ACC000104C4C0E0C4B201C0F01207C7D0F0D515
:100ADC00F0EB02081812077508B5530A205808865F
:100AEC004C0882420A244F0A2C440A2C49089B4386
:100AFC000A3255095F4609BF450929470BFF5008C3
:100B0C008A2D088E2E08B12B08922308AF200BE8F3
:100B1C002A084A48000008A9E50AB4FF03750A062A
:100B2C0012079BFC12079BFD12079BFE12079BFFF3
:100B3C00900097020228790AA2D5200314300509E7
:100B4C00B910020404B9080104A2D5200602500110
:100B5C00042002689202B509005034C0E07F2030B6
:100B6C0003197F30A20272067205500F120B9BC242
:100B7C0002C206C205C2087F30800F300503E9C0EF
:100B8C00E01207DE300503D0E0F9D0E0B509CC3037
:100B9C0005177F30B9100C1207DE7F583004077F21
:100BAC00788003B908031207DE3002057F2D020797
:100BBC00DE7F202008F87F2B2006F322920280CFC4
:100BCC007F00B40700500B2497F582E43400F583C2
:100BDC00E0FF22286E756C6C2900D20112079B3045
:100BEC0001F8C201780930D50108F602084A2D50E7
:100BFC0043495812079B2403B405004001E4900BB1
:100C0C00FA931207CF743A1207CFD2037509040274
:020C1C000A20AC
:1001EB00F920E73624F950037907E4F42402FBE500
:1001FB0082158270021583DBF6E024FB501BE9604D
:10020B0014E4F0E582158270021583E004F0B40A61
:0D021B0008E4F0D9EE7401F00A22C2D522E9
:10022800ED33EC3392D5FA602AB4FF33EDC2E77BA5
:10023800FF60067A02794DE4227A02795620D504C5
:100248007A027951224E614E002B494E46002D49C3
:100258004E4600E47A08F0A3DAFC7B00740722C05B
:1002680083C082ECC0E0EDC0E0EEC0E0EFC0E0EAA1
:1002780075F010A4CAABF075F04DA42BFBE435F073
:10028800FCEA2410FAEB34C5FBEC34D9FCEDC2E7E8
:10029800FF75F056A4F42411C5F0F434C58FF0A40A
:1002A8002AE5F03BE43CF020E7141204F5D0E0FF27
:1002B800D0E0FED0E0FDD0E0FC1204288014F40465
:1002C8001204F5D0E0FFD0E0FED0E0FDD0E0FC1253
:1002D8000026D082D083E0FAEDD2E7CD33EC332488
:1002E80082FBE4C3CF33CFCE33CECD33CD33DBF374
:1002F8007B0775F00A846004F0A31B0AE5F0F0A3FD
:100308008FF0740AA4FFACF08EF0740AA42CFEAC33
:10031800F050010C8DF0740AA42CFDE435F0F0A324
:05032800DBDE7407227A
:10032D000201D6E86480F8E933E83360110460F027
:10033D00ED33EC337009E8FCE9FDEAFEEBFF220436
:10034D0060DED3EB9FEA9EE99DE8C2E78CF0C2F731
:10035D0095F0400CE8CCF8E9CDF9EACEFAEBCFFBFD
:10036D001201A185D0F05804700320D5B3E80470B4
:10037D00075002B2D50201E092D5EC0460F7E4CC4F
:10038D00C0E0C398F8603B94186008400DD0E0FBC6
:10039D000201B8E4FBFAC9FC8028E830E406E4C9A0
:1003AD00FBE4CAFCE830E305E4C9CACBFCE854071A
:1003BD006010F8C3E913F9EA13FAEB13FBEC13FC25
:1003CD00D8F130F52FC3E49CFCEF9BFFEE9AFEEDC8
:1003DD0099FDD0E0FBEF4E4D4C701222DB03020174
:1003ED00DDEC2CFCEF33FFEE33FEED33FDED30E7AE
:1003FD00EB0201B8EF2BFFEE3AFEED39FDD0E0FB3D
:10040D0050130BBB00030201E0ED13FDEE13FEEFE5
:08041D0013FFEC13FC0201B80F
:100425000201E0EC5D046005E8590470030201D6A1
:100435001201A1580460F6EC4860F2EC7004FDFE70
:10044500FF22C860DB2481C85009C39860025006AA
:100455000201DD9850CAF582E9294B4A7005AB8245
:100465000201CC75F0007C1A7880C3EF9BEE9AED03
:1004750099400DC3EF9BFFEE9AFEED99FDE842F022
:10048500DC23ACF0D0E0FFD0E0FED0E0FDAB822075
:10049500E7101BEB60BAEC2CFCEF33FFEE33FEEDFF
:1004A50033FD0201B8E803F830E705C0F075F00048
:1004B500EF2FFFEE33FEED33FD40B830E7C280AAE3
:1004C5003F8000004120000042C80000447A00003F
:1004D500461C400047C35000497424004B189680C1
:1004E5004CBEBC205A0E1BCA6753C21C749DC5AEB8
:1004F500FB60065407601C2323120523EB54386068
:100505000912050F12051E120026ECF8EDF9EEFA98
:10051500EFCB22EB12051E80F1543803241C900406
:10052500C5FE93FC0EEE93FD0EEE930ECE93FF22C9
:10053500BB010689828A83E0225002E722BBFE02C4
:09054500E32289828A83E49322F7
:10054E00BB010CE58229F582E5833AF583E0225062
:10055E0006E92582F8E622BBFE06E92582F8E222AC
:0D056E00E58229F582E5833AF583E49322C6
:10057B00BB010689828A83F0225002F722BBFE015F
:02058B00F32259
:10058D00F8BB010DE58229F582E5833AF583E8F0A4
:10059D00225006E92582C8F622BBFE05E92582C850
:0205AD00F22238
:1005AF00EF8DF0A4A8F0CF8CF0A428CE8DF0A42E60
:0205BF00FE221A
:1005C100C5F0F8A3E028F0C5F0F8E58215827002C5
:0605D1001583E038F02262
:1005D700A3F8E0C5F025F0F0E582158270021583D7
:0605E700E0C838F0E82234
:1005ED00E88FF0A4CC8BF0A42CFCE98EF0A42CFCAD
:1005FD008AF0EDA42CFCEA8EF0A4CDA8F08BF0A42B
:10060D002DCC3825F0FDE98FF0A42CCD35F0FCEB89
:10061D008EF0A4FEA9F0EB8FF0A4CFC5F02ECD394E
:0F062D00FEE43CFCEAA42DCE35F0FDE43CFC22BB
:10063C0075F008758200EF2FFFEE33FECD33CDCC75
:10064C0033CCC58233C5829BED9AEC99E5829840F8
:10065C000CF582EE9BFEED9AFDEC99FC0FD5F0D6D5
:10066C00E4CEFBE4CDFAE4CCF9A88222B800C1B9FF
:10067C000059BA002DEC8BF084CFCECDFCE5F0CB3D
:10068C00F97818EF2FFFEE33FEED33FDEC33FCEB76
:10069C0033FB10D703994004EB99FB0FD8E5E4F931
:1006AC00FA227818EF2FFFEE33FEED33FDEC33FC1E
:1006BC00C933C910D7059BE99A4007EC9BFCE99A12
:1006CC00F90FD8E0E4C9FAE4CCFB2275F010EF2F57
:1006DC00FFEE33FEED33FDCC33CCC833C810D70757
:1006EC009BEC9AE899400AED9BFDEC9AFCE899F892
:0E06FC000FD5F0DAE4CDFBE4CCFAE4C8F92225
:0E070A00C3E49FFFE49EFEE49DFDE49CFC2200
:0C071800ECF0A3EDF0A3EEF0A3EFF02254
:10072400A8828583F0D083D08212073B12073B1244
:10073400073B12073BE473E493A3C583C5F0C58369
:10074400C8C582C8F0A3C583C5F0C583C8C582C81F
:010754002282
:10075500F8E0FBA3A3E0F925F0F0E582158270022D
:070765001583E0FA38F022D1
:09076C00EBF0A3EAF0A3E9F0228E
:10077500D083D082F8E4937012740193700DA3A313
:1007850093F8740193F5828883E473740293686027
:06079500EFA3A3A380DF27
:10162300EFB40A07740D12162E740A309811A89994
:10163300B8130CC2983098FDA899C298B811F63027
:0716430099FDC299F59922FF
:00000001FF
