:091732004144433D25660D0A0007
:1013AE001216FE1215BF1213F09000C61206E17F40
:1013BE00F47E0112167A9000C6E0FCA3E0FDA3E0D5
:1013CE00FEA3E0FF9000011206E1E4FF1215E89083
:1013DE0000041206E17BFF7A1779327F011211D3D6
:0213EE0080CDB0
:030000000216B035
:1016B000787FE4F6D8FD9000007F007E20E4F0A360
:0A16C000DFFCDEFA7581210213AE93
:10167A00EF4E60167DAC7C0DED1D70011C144C7094
:0A168A00F7EF1F70011E144E70EA06
:011694002233
:09172800EF1F70011E144E70F752
:011731002295
:10000300E4FCFD7B047AFF7906F81205B69000CA7A
:0F0013001206E19000CAE0C313FEA3E013FF2220
:10163600E50E6599600885990EE4F50D800530097B
:1016460002050DE50DC394E94007C2AF75C760807A
:02165600FB2275
:100DD000EF14601614602C14604D14606C147003D2
:100DE000020E6424056003020E8790FE02E0547E2A
:100DF0004480F0E030E0F390FE00E054FCF090FE20
:100E000003807A90FE04E0547E4480F0E030E0F30A
:100E100090FE00E054FC4403F090FE02E4F090FEEB
:100E200008F090FE03F02290FE08E0547E4480F02B
:100E3000E030E0F390FE00E054FC4402F090FE0449
:100E4000E4F090FE02F0A3F02290FE03E0543E4452
:100E500080F0E030E0F390FE00E054FC4401F090BC
:100E6000FE02801990FE03E0543E44C0F0E030E002
:100E7000F390FE00E054FC4401F090FE02E4F09098
:080E8000FE08F090FE04F022D0
:0C171C00EF90FE01700304F022EFF022B9
:1016FE0043BA80D209E4F50EF50D1214D8D2AF22FA
:0B0F3F009000B7EBF0A3EAF0A3E9F08C
:100F4A00E4FFFE9000BDF0A3F0A3F0A3F09000B779
:100F5A00E0FBA3E0FAA3E0F91204FE7003020FF02B
:100F6A009000BAE0FBA3E0FAA3E0F98F828E831225
:100F7A000517FD9000B7E0FBA3E0FAA3E0F912041D
:100F8A00FEB505070FBF00010E801E1204FEFD907C
:100F9A0000BAE0FBA3E0FAA3E0F91204FEB50506E5
:100FAA007E007F018003E4FEFF9000C0E004F07041
:100FBA00069000BFE004F09000B8E475F001120555
:100FCA008A9000BAE0FBA3E0FAA3E0F98F828E834D
:100FDA001205176003020F57C39000C0E09FFF90ED
:0A0FEA0000BFE09EFE227EFF7FFFA5
:010FF40022DA
:100E8800E49000D2F09000D4F09000D3F09000D31A
:100E9800E0FFC3940A4003020F397E00ED2FF5826C
:100EA800EE3CF583120517FFC3648094B0404BD322
:100EB800EF648094B750439000D4E004F0E0B401AC
:100EC800179000D3E02DF582EE3CF5831205172428
:100ED800D0C454F09000D2F09000D4E0B4021B903B
:100EE80000D3E07E002DF582EE3CF5831205172431
:100EF800D0FF9000D2E04FFFF0229000D3E07E00B8
:100F08002DF582EE3CF583120517FFC3648094B873
:100F1800400ED3EF648094B950069000D4E004F0FA
:100F2800EF642C600CEF60099000D3E004F0020E2F
:060F3800959000D2E0FFDD
:010F3E002290
:080D14009000C1ECF0A3EDF02A
:100D1C00E4A3F0A3F0A3F09000C5E0FFC39414404B
:100D2C0003020DC79000C2E02FFF9000C1E0340019
:100D3C008F82F583120517FFC3648094B0404ED3A5
:100D4C00EF648094B950469000C3E0FEA3E0FF7CB2
:100D5C00007D0A1205789000C3EEF0A3EFF0A3E03B
:100D6C00FF9000C2E02FFF9000C1E034008F82F5AD
:100D7C0083120517FF3395E0FEEF24D0FFEE34FF0E
:100D8C00FE9000C4E02FF09000C3E03EF09000C550
:100D9C00E0FF9000C2E02FFF9000C1E034008F8292
:100DAC00F583120517FF642C6011EF642E600CEFB5
:100DBC0060099000C5E004F0020D239000C3E0FE32
:030DCC00A3E0FFA2
:010DCF002201
:100BE7009000A5EBF0A3EAF0A3E9F0A3ECF0A3EDE6
:010BF700F00D
:100BF800E49000B1F0A3F0A3F0A3F0A3F0A3F09069
:100C080000AFF0A3F09000A8E0FEA3E0FF9000AFD3
:100C1800E0FCA3E0FDC39FEC9E4003020CB79000EC
:100C2800AAE0FBA3E0FAA3E0F99000B1E0FEA3E09C
:100C3800F5828E83120517FF9000A5E0FBA3E0FA6A
:100C4800A3E0F98D828C83120517B507339000B2A3
:100C5800E004F070069000B1E004F09000ADE0FE12
:100C6800A3E0FF9000B1E0B50631A3E0B5072C90F2
:100C780000AFE0FFA3E09000B5CFF0A3EFF0802F26
:100C8800E49000B1F0A3F09000B0E02401FE9000E1
:100C9800AFE034009000B3F0A3CEF09000B0E004D1
:100CA800F06003020C0D9000AFE004F0020C0D9010
:100CB80000B5E0FEA3E0FF9000B3E0FCA3E0FDD3A5
:100CC8009FEC9E50449000AFECF0A3EDF09000B57F
:100CD800E0FEA3E0FF9000AFE0FCA3E0FDC39FECC3
:100CE8009E50239000A5E0FBA3E0FAA3E0F98D82D3
:100CF8008C83E41205569000B0E004F070CF9000A9
:0B0D0800AFE004F080C77F01227F00F5
:010D130022BD
:08173B000102040810204080A7
:10123000EF64886052EF54F0F50FEF540FFE9017F3
:101240003B93F510EED39407503DED6017E50F2466
:10125000B060092420703090FE13800390FE15E0EA
:101260004510F022E50F24B060112420701990FE83
:1012700013E0FFE510F4FEEF5EF02290FE15E0FFB4
:07128000E510F4FEEF5EF043
:011287002244
:1014A600EB6015EF24B060092420702590FE1380B0
:1014B6000390FE15E04DF022EF24B0600924207061
:1014C6001090FE13800390FE15E0FFEDF4FEEF5E34
:0214D600F02202
:100FF500EF64887003021099EF54F0F50FEF540F6A
:10100500FE90173B93F510EED39407400302109919
:10101500E50F24B060092420707A750F03800375ED
:101025000F05EDD39403506CE50F64037030ED703C
:1010350007E510F452B152B2EDB40109E51042B121
:10104500E510F452B2EDB40208E51042B1E51042E4
:10105500B2EDB40309E510F452B1E51042B2E50F63
:1010650064057030ED7007E510F452C952CAEDB44D
:101075000109E51042C9E510F452CAEDB40208E5CC
:101085001042C9E51042CAEDB40309E510F452C98E
:04109500E51042CA56
:011099002234
:10117000EBD39403505CEF64037029EB7006EDF43D
:1011800052B152B2EBB40107ED42B1EDF452B2EB01
:10119000B40206ED42B1ED42B2EBB40307EDF452F6
:1011A000B1ED42B2EF64057029EB7006EDF452C95F
:1011B00052CAEBB40107ED42C9EDF452CAEBB402D6
:1011C00006ED42C9ED42CAEBB40307EDF452C9ED96
:0311D00042CA22EE
:10109A00EF64886065EF54F0F50FEF540FFE901778
:1010AA003B93F510EED394075050E50F24B0600936
:1010BA0024207046750F038003750F05EDB40117E0
:1010CA00E50F24FB60092402703090FE2380039010
:1010DA00FE25E04510F022E50F24FB601124027082
:1010EA001990FE23E0FFE510F4FEEF5EF02290FE79
:0A10FA0025E0FFE510F4FEEF5EF0C4
:0111040022C8
:10110500EF64886065EF54F0F50FEF540FFE90170C
:101115003B93F510EED394075050E50F24B06009CA
:1011250024207046750F038003750F05EDB4011774
:10113500E50F24FB60092402703090FE2B8003909C
:10114500FE2DE04510F022E50F24FB60112402700E
:101155001990FE2BE0FFE510F4FEEF5EF02290FE05
:0A1165002DE0FFE510F4FEEF5EF050
:01116F00225D
:1016DC00EF24FB6007240270078DB022AF058FC882
:0116EC0022DB
:1016CA00EF24FB600724027006AFB022AFC8227F66
:0216DA00FF22ED
:10132000EF64886041EF54F0F50FEF540FFE901713
:101330003B93F510EED39407502CED6014E50F2489
:10134000B060092420701FE51042B022E51042C8A9
:1013500022E50F24B0600A2420700BE510F452B08F
:0613600022E510F452C862
:011366002264
:10143200EFB488037F0022EF54F0F50FEF540FFE54
:1014420090173B93F510EED3940740037F0122E5FA
:101452000F24B060092420700885B011800385C86C
:0C14620011E511551060037F01227F008E
:01146E00225B
:10156800EF64886028EF54F0F50FEF540FFE9017E2
:101578003B93F510EED394075013E50F24B06009A0
:0D15880024207009E51062B022E51062C851
:011595002233
:1016ED00EF24FB600824027007ED62B022ED62C8A2
:0116FD0022CA
:10159600A907EB6011E924FB60082402701AED42EA
:1015A600B022ED42C822E924FB600924027009ED4D
:0915B600F452B022EDF452C822F7
:10165800EF24FB600C24FD600C2405700BAEB080F9
:1016680007AEC880037F0122EE5D60037F01227F01
:011678000071
:01167900224E
:0617430030313233545531
:1014D80075985053873F538EDEE4FD7F01121288C2
:1014E8009000011206ED0001C2007F0112150843A9
:1014F8008E4053890FC2ABC28FD28EC20AD2AC22A1
:10128800900000EDF0EF147044900000E0FF54C0AF
:10129800FEE5A2543F4EF5A2EFC41313540325E014
:1012A8002443F582E43417F583E493FFE4FD120F39
:1012B800F5900000E0C41313540325E02444F5829C
:0E12C800E43417F583E493FF7D03120FF52243
:05150800900000EFF06F
:10150D00A3E0F8A3E0F9A3E0FAA3E0FB7FB07E83AC
:10151D007D857C00120641C3E49FFFE49EFE900092
:0A152D0000E01470058F8BEEF58DC1
:011537002291
:0E170E00EF147009AF058F99D20A200AFD2250
:10169500EF147016EB6006D29BD29B8004C29BC2EE
:0B16A5009BAF058F99D20A200AFD229E
:10146F0090006FEBF0A3EAF0A3E9F0AE0790006FE6
:10147F00E0FBA3E0FAA3E0F91204FE6019AF0690B7
:10148F00006FA3E475F0011205A0A9F0FA1204FE93
:07149F00FD12170E80D72299
:0E11D300900000EFF0A3EBF0A3EAF0A3E9F028
:1011E10090006C7401F0A37400F0A37404F09000FB
:1011F10001E0F9A3E0FAA3E090006FC9F0A3EAF0DF
:10120100A3E9F090006CE0F9A3E0FAA3E09000728A
:10121100C9F0A3EAF0A3E9F07B017A00792C12125C
:0F122100D6900000E0FF7B017A00792C02146F59
:0100220022BB
:011755002271
:011756002270
:01175700226F
:1015BF0075DE2F78EFE6FC08E6FDE41201D1E4FBBF
:1015CF00FA797A784412012F9000CE1206E17D014C
:0915DF007F30120FF543BC80229D
:101538007DC07C12EF540FFFE5BC54F04FF5BC435F
:10154800BC400000E5BC20E50BED4C6007ED1D70CC
:0F155800F31C80F053BCDFAFBDEFFEADBEEDFF67
:011567002261
:1015E800121538AD07AC06E41201D1900001E0F8FD
:1015F800A3E0F9A3E0FAA3E0FB120026E4FBFA79E2
:0616080080784412012F5E
:01160E0022B9
:03174F00D2AD22F6
:03175200C2AD2203
:1013F0007F0F121538EF4E7005FFFEFDFC22AD0782
:10140000AC06E41201D1C004C005C006C007E4FF69
:10141000FE7D807C449000CEE0F8A3E0F9A3E0FAE2
:10142000A3E0FB120026D003D002D001D0001201AD
:011430002F8C
:011431002298
:0617490053B7EFC2BC2201
:030023000213675E
:10136700C0E0C0F0C083C082C0D075D000C000C04C
:1013770001C002C003C004C005C006C007309805FD
:10138700C298121636309904C299C20AD007D006FD
:10139700D005D004D003D002D001D000D0D0D08265
:0713A700D083D0F0D0E0324A
:10002600EC4D6011E8497017ED33EC3304600DE4D4
:10003600FCFFFEFD22E933E8330470F802023F12AA
:10004600020A58046009E4CC2481500628500902AB
:100056000249284003020246C0E0EB4A7044B980D8
:1000660006D0E0FB020235EF4E701CBD8008EBFFA8
:10007600EAFEE9FD80EBE98DF0A4FEE5F002010F52
:10008600E9CDF9EAFEEBFFEF89F0A4FCE5F0CE89B5
:10009600F0A42EFFE435F0CD89F0A42DFEE435F072
:1000A6008067EF4E7005BD80D780C3EF8BF0A4ACA0
:1000B600F0EE8BF0A42CFCE435F0F8EF8AF0A42CDB
:1000C600E5F038FCE433CB8DF0A42CFCE5F03BF8EE
:1000D600EE8AF0A42CFCE5F038F8E433CF89F0A4DE
:1000E6002CFCE5F038CF3400CE89F0A42FFFE5F0E4
:1000F6003EFEE433C98DF0A42EFEE5F039CD8AF03C
:10010600A42FFFE5F03EFEE43DFD33D0E0FB5007B3
:100116000BBB000F020249EC2CFCEF33FFEE33FE63
:06012600ED33FD02022191
:10012C00020249EC5D046005E85904700302023FC9
:10013C0012020A580460F6EC4860F2EC7004FDFE02
:10014C00FF22C860DB2481C85009C39860025006A6
:10015C000202469850CAF582E9294B4A7005AB82D7
:10016C0002023575F0007C1A7880C3EF9BEE9AED95
:10017C0099400DC3EF9BFFEE9AFEED99FDE842F01E
:10018C00DC23ACF0D0E0FFD0E0FED0E0FDAB822071
:10019C00E7101BEB60BAEC2CFCEF33FFEE33FEEDFB
:1001AC0033FD020221E803F830E705C0F075F000DA
:1001BC00EF2FFFEE33FEED33FD40B830E7C280AADF
:1001CC0075F020800E75F010800575F0087D007EAE
:1001DC00007F003392D530D5031206D3EC33401098
:1001EC00EF33FFEE33FEED33FDEC33FCD5F0ED22B7
:0E01FC00E5F0247EA2D513CC92E7CDCEFF22F3
:1012D60090006FE0FFA3E0FEA3E0CF900078F0A3BC
:1012E600EEF0A3EFF0900072E0CBF0A3E0CAF0A31B
:1012F600E0C9F07F2290007BAD82AC831204FE8DA4
:10130600828C83F0A309E970010ADFEC900072E099
:0A131600FBA3E0FAA3E0F90207C907
:10020A00E9D2E7C933E833F892D5EDD2E7CD33EC3A
:07021A0033FC5002B2D522B3
:10022100EC30E7100FBF000C0EBE00080DBD00043E
:100231000BEB6014A2D5EB13FCED92E7FD2274FFEA
:10024100FCFDFEFF22E480F8A2D574FF13FC7D8043
:03025100E480EF57
:10076400E5082478F582E43400F583E00508229056
:100774000075300703900078E475F00112071E023B
:1007840004FE2000E97F2ED2008018EF540F24903D
:10079400D43440D4FF30040BEF24BFB41A00500308
:1007A4002461FFE50960021509050CE50C700205DA
:1007B4000B30070E900075E475F00112071EEF026E
:1007C400054402160F7403D2078003E4C207F50838
:1007D400900075120735E4F509F50BF50CE5096091
:1007E400077F201207A780F5750AFFC201C200C265
:1007F40002C203C205C206C208120773FF700D309D
:1008040007057F001207B8AF0CAE0B22B4255FC2F8
:10081400D5C204120773FF24D0B40A00501A75F02D
:100824000A780930D50508B6FF0106C6A426F620C5
:10083400D5047002D20380D924CFB41A00EF500437
:10084400C2E5D204020AAAD20180C6D20080C0D274
:100854000280BCD2D580BAD20580B47F201207A70B
:100864002002077401B5090040F1120764FF120762
:10087400A70207E1D208D2068095120764FB12078B
:1008840064FA120764F94A4B700679A87A0B7BFF65
:1008940020022EE509602A7E008E827583001205EF
:1008A4001760060EEE650A70F0C2D5EBC0E0EAC030
:1008B400E0E9C0E0EE120B0BD0E0F9D0E0FAD0E0B2
:1008C400FB1204FEFF60AAEBC0E0EAC0E0E9C0E06E
:1008D4001207A7D0E02401F9D0E03400FAD0E0FBFD
:1008E400E50A0460DCD50AD98087D20280A2120A04
:1008F400ED60F7E50A700104120254A90A600DE5DF
:100904000A600914F50A120B95EF60F3EA30E70266
:10091400F404C3995079EAF4250A0430E701E404A5
:10092400F50A800D120AED60C1EA050A250A1202D1
:1009340054EA9000A4F030E701E4250A04D50A043F
:1009440020050114120B0BE4C0E0120B959000A4D7
:10095400E0601320E70714F012078F802204F0D020
:10096400E014C0E07F0012078FE50A6007120786D3
:10097400150A800B300503120786D0E00207E1D088
:10098400E00480C4120AED609EE50A041202549049
:1009940000A4EAF0E50A2005026001042404120B15
:0109A4000B47
:1009A50074FF04C0E0120B9512078FE50A200502BB
:1009B5006003120786D0E0B50AE87F4512079990D3
:1009C50000A4E07F2B30E7047F2DF404C0E012077C
:1009D500A7D0E075F00A84C0F0120790D0E01207A6
:1009E500900207E1791080027908C206C2088008E2
:1009F500D2D5790A8004790AC2D5E50A047002F5D0
:100A05000AE4FAFDFEFF120764FC7B0820011312BD
:100A15000764FD7B1030000A120764FE120764FFAD
:100A25007B20EC3382D592D55013C3E43000069F6A
:100A3500FFE49EFEE42001039DFDE49CFCE4CBF86D
:100A4500C201EC700CCFCECDCCE824F8F870F38061
:100A550017C3EF33FFEE33FEED33FDEC33FCEB3321
:100A6500FB994002FB0FD8E9EB300105F8D0E0C453
:100A750048B201C0E00AEC4D4E4F78207B0070C2B1
:100A8500EAB50A0040BCC0E0120B0DD0F0D0E02062
:100A95000104C4C0E0C4B201C0F0120790D0F0D583
:100AA500F0EB0207E112073E087E5309E958084FAB
:100AB5004C084B4209ED4F09F54409F549086443D3
:100AC50009FB5509284609884508F2470BC850080F
:100AD500532D08572E087A2B085B230878200BB175
:100AE5002A08134800000872E50AB4FF03750A06D0
:100AF500120764FC120764FD120764FE120764FF07
:100B050090009D020291790AA2D5200314300509AF
:100B1500B910020404B9080104A2D5200602500147
:100B2500042002689202B509005034C0E07F2030ED
:100B350003197F30A20272067205500F120B64C2B0
:100B450002C206C205C2087F30800F300503E9C026
:100B5500E01207A7300503D0E0F9D0E0B509CC30A5
:100B650005177F30B9100C1207A77F583004077F8F
:100B7500788003B908031207A73002057F2D020705
:100B8500A77F202008F87F2B2006F322920280CF32
:100B95007F00B40700500B249DF582E43400F583F3
:100BA500E0FF22286E756C6C2900D20112076430B3
:100BB50001F8C201780930D50108F60208132D5055
:100BC5004349581207642403B405004001E4900B1F
:100BD500C393120798743A120798D2037509040251
:020BE50009E91C
:10025400F920E73624F950037907E4F42402FBE596
:1002640082158270021583DBF6E024FB501BE960E3
:1002740014E4F0E582158270021583E004F0B40AF8
:0D02840008E4F0D9EE7401F00A22C2D52280
:10029100ED33EC3392D5FA602AB4FF33EDC2E77B3C
:1002A100FF60067A0279B6E4227A0279BF20D5048A
:1002B1007A0279BA224E614E002B494E46002D49F1
:1002C1004E4600E47A08F0A3DAFC7B00740722C0F2
:1002D10083C082ECC0E0EDC0E0EEC0E0EFC0E0EA38
:1002E10075F010A4CAABF075F04DA42BFBE435F00A
:1002F100FCEA2410FAEB34C5FBEC34D9FCEDC2E77F
:10030100FF75F056A4F42411C5F0F434C58FF0A4A0
:100311002AE5F03BE43CF020E7141204BED0E0FFF4
:10032100D0E0FED0E0FDD0E0FC12012F8014F404F7
:100331001204BED0E0FFD0E0FED0E0FDD0E0FC1220
:100341000026D082D083E0FAEDD2E7CD33EC33241E
:1003510082FBE4C3CF33CFCE33CECD33CD33DBF30A
:100361007B0775F00A846004F0A31B0AE5F0F0A393
:100371008FF0740AA4FFACF08EF0740AA42CFEACCA
:10038100F050010C8DF0740AA42CFDE435F0F0A3BB
:05039100DBDE74072211
:1003960002023FE86480F8E933E83360110460F054
:1003A600ED33EC337009E8FCE9FDEAFEEBFF2204CD
:1003B60060DED3EB9FEA9EE99DE8C2E78CF0C2F7C8
:1003C60095F0400CE8CCF8E9CDF9EACEFAEBCFFB94
:1003D60012020A85D0F05804700320D5B3E80470E1
:1003E600075002B2D502024992D5EC0460F7E4CC7C
:1003F600C0E0C398F8603B94186008400DD0E0FB5D
:10040600020221E4FBFAC9FC8028E830E406E4C9CC
:10041600FBE4CAFCE830E305E4C9CACBFCE85407B0
:100426006010F8C3E913F9EA13FAEB13FBEC13FCBB
:10043600D8F130F52FC3E49CFCEF9BFFEE9AFEED5E
:1004460099FDD0E0FBEF4E4D4C701222DB03020209
:1004560046EC2CFCEF33FFEE33FEED33FDED30E7DB
:10046600EB020221EF2BFFEE3AFEED39FDD0E0FB69
:1004760050130BBB0003020249ED13FDEE13FEEF12
:0804860013FFEC13FC0202213C
:10048E003F8000004120000042C80000447A000076
:10049E00461C400047C35000497424004B189680F8
:1004AE004CBEBC205A0E1BCA6753C21C749DC5AEEF
:1004BE00FB60065407601C23231204ECEB543860D7
:1004CE00091204D81204E7120026ECF8EDF9EEFA40
:1004DE00EFCB22EB1204E780F1543803241C900476
:1004EE008EFE93FC0EEE93FD0EEE930ECE93FF2238
:1004FE00BB010689828A83E0225002E722BBFE02FC
:09050E00E32289828A83E493222E
:10051700BB010CE58229F582E5833AF583E0225099
:1005270006E92582F8E622BBFE06E92582F8E222E3
:0D053700E58229F582E5833AF583E49322FD
:10054400BB010689828A83F0225002F722BBFE0196
:02055400F32290
:10055600F8BB010DE58229F582E5833AF583E8F0DB
:10056600225006E92582C8F622BBFE05E92582C887
:02057600F2226F
:10057800EF8DF0A4A8F0CF8CF0A428CE8DF0A42E97
:02058800FE2251
:10058A00C5F0F8A3E028F0C5F0F8E58215827002FC
:06059A001583E038F02299
:1005A000A3F8E0C5F025F0F0E5821582700215830E
:0605B000E0C838F0E8226B
:1005B600E88FF0A4CC8BF0A42CFCE98EF0A42CFCE4
:1005C6008AF0EDA42CFCEA8EF0A4CDA8F08BF0A462
:1005D6002DCC3825F0FDE98FF0A42CCD35F0FCEBC1
:1005E6008EF0A4FEA9F0EB8FF0A4CFC5F02ECD3986
:0F05F600FEE43CFCEAA42DCE35F0FDE43CFC22F3
:1006050075F008758200EF2FFFEE33FECD33CDCCAC
:1006150033CCC58233C5829BED9AEC99E58298402F
:100625000CF582EE9BFEED9AFDEC99FC0FD5F0D60C
:10063500E4CEFBE4CDFAE4CCF9A88222B800C1B936
:100645000059BA002DEC8BF084CFCECDFCE5F0CB74
:10065500F97818EF2FFFEE33FEED33FDEC33FCEBAD
:1006650033FB10D703994004EB99FB0FD8E5E4F968
:10067500FA227818EF2FFFEE33FEED33FDEC33FC55
:10068500C933C910D7059BE99A4007EC9BFCE99A49
:10069500F90FD8E0E4C9FAE4CCFB2275F010EF2F8E
:1006A500FFEE33FEED33FDCC33CCC833C810D7078E
:1006B5009BEC9AE899400AED9BFDEC9AFCE899F8C9
:0E06C5000FD5F0DAE4CDFBE4CCFAE4C8F9225C
:0E06D300C3E49FFFE49EFEE49DFDE49CFC2238
:0C06E100ECF0A3EDF0A3EEF0A3EFF0228C
:1006ED00A8828583F0D083D08212070412070412EA
:1006FD000704120704E473E493A3C583C5F0C5830F
:10070D00C8C582C8F0A3C583C5F0C583C8C582C856
:01071D0022B9
:10071E00F8E0FBA3A3E0F925F0F0E5821582700264
:07072E001583E0FA38F02208
:09073500EBF0A3EAF0A3E9F022C5
:10073E00D083D082F8E4937012740193700DA3A34A
:10074E0093F8740193F5828883E47374029368605E
:06075E00EFA3A3A380DF5E
:10160F00EFB40A07740D12161A740A309811A899BC
:10161F00B8130CC2983098FDA899C298B811F6303B
:07162F0099FDC299F5992213
:00000001FF
